:020000040800F2
:10000000D08100209D010008CB1E0008D1110008FE
:10001000C91E000821030008812700080000000015
:100020000000000000000000000000000D26000895
:100030002303000800000000B51F00081127000876
:10004000B7010008B7010008B7010008B7010008B0
:10005000B7010008B7010008B7010008B7010008A0
:10006000B7010008B7010008B7010008B701000890
:10007000B7010008B7010008B7010008B701000880
:10008000B7010008B7010008B7010008B701000870
:10009000B7010008B7010008B7010008B701000860
:1000A000B7010008B7010008B7010008B701000850
:1000B000B7010008B7010008B7010008B701000840
:1000C000B7010008B7010008B7010008B701000830
:1000D000B7010008B7010008B7010008B701000820
:1000E0002D0C0008B7010008B7010008B70100088F
:1000F000B7010008B7010008B7010008B701000800
:10010000B7010008B7010008B7010008B7010008EF
:10011000B7010008B7010008B7010008B7010008DF
:10012000B7010008B7010008B7010008B7010008CF
:10013000B7010008B7010008B7010008B7010008BF
:10014000B7010008B7010008B7010008B7010008AF
:10015000B7010008B7010008B7010008B70100089F
:10016000B7010008B7010008B7010008B70100088F
:10017000B7010008B7010008B7010008B70100087F
:10018000B7010008B7010008DFF80CD000F088F8CC
:100190000048004759500008D08100200648804799
:1001A00006480047FEE7FEE7FEE7FEE7FEE7FEE75C
:1001B000FEE7FEE7FEE7FEE71527000889010008D5
:1001C00040EA01039B0703D009E008C9121F08C0D9
:1001D000042AFAD203E011F8013B00F8013B521E59
:1001E000F9D27047D2B201E000F8012B491EFBD2D0
:1001F00070470022F6E710B513460A460446194632
:10020000FFF7F0FF204610BD10B5044604E00B7860
:1002100000F8013B03B1491C521EF8D2204610BD24
:1002200010B5002200E0521C835C8C5CA34201D11B
:10023000002BF8D1D8B2E1B2401A10BD30B5044657
:100240000020034600E05B1C934203D2E05CCD5CDF
:10025000401BF8D030BD30B505460020034600E015
:100260005B1C934205D2EC5CC85C201A01D1002CC7
:10027000F6D130BD30B50B460146002020220124C6
:1002800009E021FA02F59D4205D303FA02F5491B64
:1002900004FA02F52844151EA2F10102F1DC30BD7A
:1002A000064C074D06E0E06840F0010394E80700C3
:1002B00098471034AC42F6D3FFF76AFF5096000817
:1002C0007096000870B501EB020410F8015B15F0A0
:1002D000070301D110F8013B2A1106D110F8012BB8
:1002E00003E010F8016B01F8016B5B1EF9D12B07DD
:1002F00005D40023521E0FD401F8013BFAE710F891
:10030000013B02F10202A1EB030303E013F8015BDE
:1003100001F8015B521EF9D5A142D6D3002070BD71
:10032000FEE770471FB500F017F900F01DFB1E48EF
:100330004068F8B1012000F073FD00F0D7FC042004
:1003400002F0DAF9684601F067FE01986421B0FB1B
:10035000F1F0B0F1807F0CD220F07F414FF0E0202F
:10036000491E4161114AF02111700021816107216C
:1003700001611FBD4FF4784001F002FC01F076FBF3
:10038000C0880BA100EB800080B201F0E9FA01F017
:100390006DFBC0884FF6FF7100EB400001EA4000A2
:1003A00008A101F0DDFAFEE75800002023ED00E08F
:1003B00020202045746865726E657420496E6974EA
:1003C000202020002020202020206661696C6564A8
:1003D0002020202020200000174A50680368114682
:1003E000002B896808DB0368DB0505D54860886851
:1003F000401C8860012070470368002B0CDB0368F9
:100400009B0509D50368DB0506D408600020486019
:100410000120886050680BE00368002B0ADB03684A
:100420009B0507D40368DB0504D48B685B1C8B60D9
:10043000C06850600020704718010020054900285E
:10044000886902D040F0020001E020F002008861DB
:100450007047000000900240F0B5124E00244FF0AB
:10046000004744F2F45C551E706013E000EB441347
:100470001F60C4EBC41E0EEB4E0E01EB8E0EC3E9E3
:1004800001CEAC4204D203F1200EC3F80CE000E030
:10049000D860641C9442E9D30349C8600348B06043
:1004A000F0BD00001801002000900240C07D002037
:1004B00005490028886902D040F4005001E020F48A
:1004C000005088617047000000900240F0B50F4C6A
:1004D00000234FF48016551E206011E000EB4314FA
:1004E0002660C3EBC31707EB470701EB8707A7603D
:1004F000AB4203D204F12007E76000E0E0605B1C40
:100500009342EBD302490861F0BD000018010020BE
:100510000090024002680A430260704710B5012152
:100520004C06204601F054FD2046BDE81040002155
:1005300001F04EBD01B581B001980090002801D0B6
:10054000401EFAE70CBD00000248816941F48011A9
:1005500081617047009002401CB5012140F2E71014
:1005600001F02AFD0121880301F04AFD4FF480705B
:10057000009003208DF8050002208DF80400002073
:100580008DF80600494C8DF807006946204600F0BA
:10059000B7FD0021600101F089FD002002F038F86C
:1005A000862000906946204600F0AAFD0B2201211A
:1005B000204600F0F6FD0B220221204600F0F1FD5E
:1005C0000B220721204600F0ECFD4FF49070384CD0
:1005D00000906946204600F093FD0B22052120463D
:1005E00000F0DFFD0B220821204600F0DAFD3E205E
:1005F000304C00906946204600F082FD0B2201211C
:10060000204600F0CEFD0B220221204600F0C9FD5D
:100610000B220321204600F0C4FD0B2204212046BA
:1006200000F0BFFD0B220521204600F0BAFD4FF47B
:10063000D040214C00906946204600F061FD0B221D
:100640001146204600F0ADFD0B220D21204600F0A2
:10065000A8FD0B220E21204600F0A3FDCC20174C54
:1006600000906946204600F04BFD0B2202212046F7
:1006700000F097FD0B220321204600F092FD0B2293
:100680000621204600F08DFD0B220721204600F0B8
:1006900088FD20150A4C00906946204600F030FD88
:1006A0000B220A21204600F07CFD1CBD0000024008
:1006B000000402400008024000180240001C0240F2
:1006C00000200240034900200968C90700D001202A
:1006D000704700000090024030B50A4B59680A6824
:1006E0009C68C2F30D42121FA568012D02D924682F
:1006F000A46800E08C68CD685D600260C0E90141DB
:1007000030BD0000180100202DE9F04188B000271D
:10071000804E0097044605973069884620F01C05F6
:1007200001A801F079FC7C4902987C4A014491427D
:1007300002D245F0080516E079497A4A014491420F
:1007400002D245F00C050EE07749784A0144914207
:1007500009D3774908447749884202D245F0040515
:1007600001E045F0100535614FF40042002140469C
:1007700000F032FA00282DD06F48FFF7DBFE20682A
:10078000B0B36E4D05980121401C0590404600F025
:1007900099F9400702D40598A842F3D30598A842D6
:1007A00017D04FF4805200214046059700F014FA0C
:1007B00000280FD005980121401C0590404600F00C
:1007C00081F9800602D40598A842F3D30598A8427F
:1007D00003D1002008B0BDE8F08110214046059704
:1007E00000F070F9410704D54FF40061216201E087
:1007F00008E02762800701D5676113E04FF480406D
:1008000060610FE0206A6169C00840EA510082B26D
:100810000021404600F0E0F90028DBD06FF07F4077
:10082000FFF788FE316846480140D4E901021043D1
:10083000E26854F8103F1A43104362681043A268FC
:100840001043E26810432269104362691043A269B1
:100850001043E2691043226A1043626A104308435E
:1008600030602834D4E900010843D4E9021211436E
:1008700008432169084361690843A1690843E169A4
:1008800008437060206AB060606AF060B1694FF63A
:1008900041700140D4E90B021043238D626B42EAA0
:1008A00003421043A26B1043E26B10430843B06154
:1008B000D4E910010843F06122498A6922480240C4
:1008C000D4E912031843D4E914352B431843A36D1C
:1008D0001843E36D1843236E1843636E1843A36EE9
:1008E000184310438861D4E91B021043626F54F827
:1008F000783F1A431043626840EA8200A2681043BE
:1009000040F400000860086840F0800008600120A2
:1009100060E700000080024000D3CEFEC0E1E400AA
:1009200040F1E9FD40787D0100796CFC005A6202DB
:10093000001F0AFA80F0FA02FFFF0F00FFFF040019
:100940000F8120FF00900240233FDEF8054B8A888C
:10095000184402640A78D1F8011042EA0121416486
:10096000704700000080024000B5AFB001214FF099
:10097000606001F021FBFFF7D1FD00F0CFF800BF70
:10098000FFF7A0FE0128FBD0684600F0E0F8012048
:10099000009000204FF40071CDE90A10090407907F
:1009A0001190CDE920010E90149013900A1115902A
:1009B0002590269023920420CDE9280180032A90D7
:1009C00080012B9040122C9040002E90012168460F
:1009D000FFF79AFE014948602FB000BD5800002083
:1009E00005490028086802D040F0040001E020F02A
:1009F000040008607047000000800240054900289C
:100A0000086802D040F0080001E020F0080008600B
:100A10007047000000800240F0B5284D00242A688D
:100A20001168002901DA0020F0BD40F2F453984229
:100A300013D9B0FBF3F103FB110606B1491C0129E0
:100A40000BD0C1F10106C6EBC61606EB460600EB5D
:100A500086004F1EC0F30C0023E0116841F04051A6
:100A60001160C0F30C005060106840F0004010604E
:100A7000D068286018E034B92E68D6F800C04CF071
:100A8000805CC6F800C05360BC4204D1166846F0D2
:100A9000005616605060166846F000461660D26830
:100AA000641C8C42E7D32A6005484169490703D595
:100AB00004214161002141600120F0BD18010020A6
:100AC0000090024018B500220092124A13694FF6B6
:100AD000FF7403F01C0304EAC02018434FF4F863CA
:100AE00003EA8111014321F0020040F0010010618E
:100AF00009480099491C00911169C90702D0009961
:100B00008142F6D30099814201D1002018BD50697D
:100B100080B218BD00800240FFFF04000248016857
:100B200041F00101016070470090024000B50120D2
:100B3000FFF764FFFFF708FD0120FFF751FF0120D9
:100B4000FFF7B6FC01205DF804EBFFF777BC01214D
:100B500001600021416081604FF48042C160C0E9C2
:100B60000412D2108161C0E9071241628162C16240
:100B70000163416340228163C0E90F122022C0E972
:100B80001121C1640165416581658022C165C0E9AB
:100B900018128166C16601674167D2048167C0E9A6
:100BA0001F125210C0E921211311C0E92331C0F8EE
:100BB0009410C0F89810C0F89C10C0E92812521286
:100BC000C0F8A8209201C0F8AC205212C0E92C2134
:100BD000C0F8B8107047000038B500230093114BDF
:100BE0001C694FF6FF7504F01C0405EAC020204381
:100BF0004FF4F86404EA8111014341F003005A61A3
:100C0000186109480099491C00911969C90702D067
:100C100000998142F6D30099814201D1002038BD6C
:100C2000012038BD00800240FFFF040010B54FF4E2
:100C30008044204600F012F8002807D0012000F080
:100C40008FF82046BDE8104000F002B810BD00004B
:100C50000149086070470000143C0140064A014603
:100C600000201268044B0A4014331B680B4202D068
:100C7000002A00D001207047003C014030B51A49DD
:100C80008379026853B30B6893430B600A1D1368A2
:100C90000468A343136002790A4413680468234379
:100CA0001360114A083213680468A3431360131DCC
:100CB0001C680568AC431C604479102C05D02144A5
:100CC0000A68006802430A6030BD11680468214365
:100CD0001160196800680143196030BD007908444B
:100CE00001689143016030BD003C014030B585B0E2
:100CF0000121022001F060F901218D03284601F055
:100D00007FF900248DF810408DF8134003A9134893
:100D1000039500F0F5F90E21012001F07FFC8DF81C
:100D200004400C2000958DF8050001258DF8065033
:100D30006846FFF7A3FF4FF4A06001F0F9F8282000
:100D40008DF808008DF809408DF80A408DF80B5099
:100D500002A801F0BBF805B030BD0000000402405D
:100D600010B51221FFF7AEFE800432D5194C207861
:100D7000C04320704FF4784000F002FF20784FF617
:100D8000FF7488B100F072FEC08813A100EB8000F0
:100D900080B200F0E5FD00F069FEC08814A100EB10
:100DA000400004EA400010E000F060FEC0880AA1A4
:100DB00000EB800080B200F0D3FD00F057FEC08849
:100DC00011A100EB400004EA4000BDE8104000F033
:100DD000C7BD10BD5800002020204E6574776F728B
:100DE0006B204361626C6520697320200000000065
:100DF0002020202020756E706C7567676564202048
:100E000020202020000000002020206E6F7720632B
:100E10006F6E6E6563746564202020200000000002
:100E200010B504461121FFF74DFE40F003021121D9
:100E30002046FFF7D1FE00280CD012212046FFF7F4
:100E400041FE40F0200212212046FFF7C5FE002897
:100E500000D0012010BD000070B50646002529B164
:100E6000012927D0022928D04FF4407500F0C8F896
:100E700008281ED1124C206820F4407020602068A1
:100E800028432060206820F0F8002060206846F0A9
:100E9000020108432060206840F48030206000F0A8
:100EA000AFF8216821F002012160216821F0F801EA
:100EB000216070BD4FF48075D8E74FF40075D5E719
:100EC000103C02400B4908200A68D20301D50120DA
:100ED00070470A68D20601D5052070470A6812F0EB
:100EE000EF0F01D00620704709688907FBD507205E
:100EF000704700000C3C0240134910B5884221D8CD
:100F000002212020FFF7A8FF02212820FFF7A4FFDD
:100F100002213020FFF7A0FF02213820FFF79CFFBD
:100F200002214020FFF798FF02214820FFF794FF9D
:100F300002215020FFF790FF02215820FFF78CFF7D
:100F4000002010BD012010BD00000E0800F046B8C2
:100F50002DE9F04116468846054600240F4F15E05E
:100F600058F82410286800F01BF8082802D0012047
:100F7000BDE8F0812868016858F82400814201D05A
:100F80000220F5E72868001D2860641CB44202D2E4
:100F90002868B842E4D90020EAE70000FBFF0F0808
:100FA00070B50D46064600F02BF8082813D10A4C00
:100FB000206820F440702060206840F400702060B9
:100FC000206840F001002060356000F019F82168C9
:100FD00021F00101216070BD103C0240054800680D
:100FE000002805DA034804490C3801600349016010
:100FF00070470000103C024023016745AB89EFCDEC
:1010000008B508208DF80000FFF75CFF8DF80000A0
:101010009DF800000128F7D09DF8000008BD0000F1
:101020004FF0204202EB80000029016802D041F01D
:10103000010101E0014A114001607047FEFF0F000D
:1010400030B5D0E901121143D0E903231A4311430B
:1010500042690368114382691143C2691143026AFC
:101060001143426A1143826A1143C26A1143026BFF
:1010700011434FF0204242F823108168082906D11D
:10108000016802EB81010B6843F040030B60416B88
:10109000D1E9003443EA04138C688D89240244EAC0
:1010A000054423430C8A43EA04530C7D896943EACF
:1010B00004630B43016802EB81014B60C16AB1F527
:1010C000804F07D000686FF0704102EB8000C0F8DD
:1010D000041130BD816B0068D1E9003443EA041388
:1010E0008C680D8A240244EA055423430C7D8969E7
:1010F00043EA046302EB80000B43C0F8043130BDC7
:10110000F0B50023012403270D6804FA03F215400B
:10111000954242D1D0F800C05E0007FA06F52CEAED
:10112000050CC0F800C091F804C0D0F800E00CFA3B
:1011300006FC4CEA0E0CC0F800C091F804C0BCF1EB
:10114000010F02D0BCF1020F1FD1D0F808C02CEA69
:10115000050CC0F808C091F805C0D0F808E00CFAFA
:1011600006FC4CEA0E0CC0F808C0D0F804C02CEA0B
:10117000020CC0F804C0426891F806C00CFA03FCE7
:101180001FFA8CFC42EA0C024260C268AA43C260A9
:10119000CA79C568B2402A43C2605B1C102BB3D326
:1011A000F0BD4B07DB0E9A40C90810B500EB81007B
:1011B000016A0F249C40A1430162016A114301624C
:1011C00010BD0246002012690A4200D0012070477B
:1011D000FEE700002DE9F0471F4C07460025207868
:1011E0000E46A94604F12008C8B1FF224146C0B20C
:1011F00003280AD86B1C9E4202D97B5D0B5400E089
:101200000A54401C20706D1CF1E713490122203163
:10121000081FFFF79DFE84F800902F44761BB1084D
:1012200016F003000FD0D4E902329A420AD04546A4
:10123000BB191A1A16782278AE54521C2270401E1E
:10124000F7D100E0491C8AB23946BDE8F0470248B0
:101250001C30FFF77DBE00000C00002010B505F02B
:10126000C3F804465022064904F0E4FBFF2120465F
:1012700005F07AF8BDE81040024904F059BB0000BF
:101280006F830008013F000810B50446084603F0CC
:101290001FFF204606F00CFA204606F0EDFA05483E
:1012A000002203498068BDE8104006F0E2BA000061
:1012B0008913000800000020408804F0CFB8000027
:1012C0002DE9F0478146164688464FF40A7003F030
:1012D0002FFF04002CD002202060D8F80000C4F8B2
:1012E0000C020025C4E9846522461A494846C4F820
:1012F000185206F0BEFA184F3D60FFF727FE174D53
:101300002846FFF7F9FD7D60324641464846D4F84D
:10131000143200F0EBF800F0A9FBC0884FF6FF7123
:1013200001EAC0000EA100F01BFB0020BDE8F08721
:101330004FF4784000F024FC00F098FBC0880EA128
:1013400000EBC00080B200F00BFB21464846FFF7DF
:101350009BFFEAE7011600080000002000000108DA
:1013600053746174653A2050726F6772616D6D6974
:101370006E672E2E000000004D656D6F727920653E
:1013800072726F72000000002DE9F04194B01E46A9
:101390001546DDF8688006F05FFA04004FF47847E0
:1013A00013D00022344906F02FF9C8B1384600F0B6
:1013B000E7FB00F05BFBC08830A100EBC00080B20F
:1013C00000F0CEFA14B0BDE8F081384600F0D8FB4A
:1013D00000F04CFBC0882EA100EBC00080B2EFE70C
:1013E0006968487802280FD0384600F0C9FB00F041
:1013F0003DFBC0882BA100EBC00080B200F0B0FA2A
:10140000204606F039FA32E0891C0022885C02F19D
:1014100001020028FAD16846FEF7F6FE4FF6FF7784
:10142000384600F0ADFB002000F0C4F900F01EFBD0
:1014300021A1002000F094FA6A4624A10AA801F034
:10144000A1F900F013FBC0880AA900EB400080B2AC
:1014500000F086FA00F00AFBC0881FA107EAC0006E
:1014600000F07EFA424631462046FFF729FF284623
:1014700004F020F9A6E700006F83000843616E20A6
:101480006E6F742062696E642070636200000000F9
:1014900043616E206E6F74206372656174652070A5
:1014A000636200004261642054465450206F7063B0
:1014B0006F646520000000002020494150207573B2
:1014C000696E6720544654502020000046696C65C0
:1014D0003A2025730000000053746174653A20457A
:1014E000726173696E672E2E2E0000002DE9F041A7
:1014F0000E4680460021042061F3070460F30F24A8
:10150000154698B202F0FAFC60F31F44032204214E
:10151000002003F0A5FF07000ED07868ABB232467A
:1015200004603946404606F0BDF90446384604F0EA
:10153000C1F82046BDE8F0814FF4784000F020FB70
:1015400000F094FAC08804A100EBC00080B200F063
:1015500007FA4FF0FF30EDE743616E206E6F7420A5
:10156000616C6C6F63617465207062756600000069
:1015700070B506F071F9154C4FF47845A06090B144
:101580004522134906F040F8C0B1284600F0F8FAA9
:1015900000F06CFAC0880FA100EBC00080B2BDE87B
:1015A000704000F0DDB9284600F0EAFA00F05EFA7B
:1015B000C0880DA100EBC00080B2F0E7A068BDE8D4
:1015C000704000220D4906F054B9000000000020D0
:1015D0006F83000843616E206E6F742062696E64D1
:1015E000207063620000000043616E206E6F742003
:1015F000637265617465207063620000891300087E
:101600002DE9F047ADF50A7D8946044650891189D8
:10161000DDF848A2984615464FF4784788420AD02C
:10162000384600F0ADFA00F021FAC08847A100EB7F
:10163000C00080B273E04A4E042830D96868FFF7D2
:101640003BFED4F81412491C884228D1688904232F
:10165000001F82B26946284603F0F8FF69893068A6
:10166000001F08443060081FC21700EB9270C0F3DF
:101670008F02880701D0521C92B239486946001D7A
:10168000FFF766FCD4F81402401CC4F81402698900
:10169000D4F818020844001FC4F818020AE0686869
:1016A000FFF70AFE0146D4F81402401C814201D122
:1016B000C4F81402524641464846D4F81432FFF7A3
:1016C00015FF6889B0F5017F2FD221464846FFF704
:1016D000DBFD284603F0EEFF4FF6FF74204600F0D6
:1016E0004FFA00F0C3F9C0881EA100EB800080B261
:1016F00000F036F9326820A180A801F043F800F02C
:10170000B5F9C08880A900EB400004EA400000F071
:1017100027F900F0ABF9C0881AA104EAC00000F074
:101720001FF90DF50A7DBDE8F087384600F028FA6C
:1017300000F09CF9C08819A100EBC00080B200F055
:101740000FF9284603F0B6FFEBE70000496E76611B
:101750006C69642064617461206C656E67746800F4
:1017600000000020546F7420627974657320526504
:101770006365697665643A002564206279746573EF
:101780002000000053746174653A2050726F672026
:1017900046696E697368656420000000202020524D
:1017A000657365742074686520626F6172642020BF
:1017B0000000000030B50546002440F23F112046ED
:1017C00000F0D2F94FF0D041222008804FF496303B
:1017D0004D80641C8442FBD330BD000070B50646CA
:1017E00040F23F14084D08E020222146304600F028
:1017F000A7F868688088201A84B26968601C80B283
:1018000089888842F0D270BD240100201CB50121D6
:10181000782000F0D1FB4CF23370009002208DF85C
:1018200004008DF8050000208DF80600404C8DF86E
:10183000070069462046FFF763FC0C220021204682
:10184000FFF7AFFC0C2201212046FFF7AAFC0C2277
:1018500004212046FFF7A5FC0C2205212046FFF7B6
:10186000A0FC0C2208212046FFF79BFC0C2209213A
:101870002046FFF796FC0C220A212046FFF791FC38
:101880000C220E212046FFF78CFC0C220F21204653
:10189000FFF787FC4FF68070264C00906946204683
:1018A000FFF72EFC0C2207212046FFF77AFC0C22C2
:1018B00008212046FFF775FC0C2209212046FFF77E
:1018C00070FC0C220A212046FFF76BFC0C220B2136
:1018D0002046FFF766FC0C2211462046FFF761FC0C
:1018E0000C220D212046FFF75CFC0C220E21204625
:1018F000FFF757FC0C220F212046FFF752FC012076
:101900000D4C009069462046FFF7FAFB0C2200219F
:101910002046FFF746FC2015084C009069462046FB
:10192000FFF7EEFB0C220A212046FFF73AFC1CBD14
:10193000000C024000100240001402400018024057
:10194000064B10B45B68203AD2B21C68DB88534364
:1019500004EB430210BC00F01FB80000240100207B
:10196000F0B50D46074640F23F140A4E08E0214606
:101970003846FFF7E5FF70688088201A84B26D1C36
:101980002A78002A05D07168601C80B28988884254
:10199000EDD2F0BD240100202DE9F04390468946A8
:1019A0000026054600F0E0F84FF0D047184C29E03B
:1019B0002220388000201BE00C23B1FBF3F34FEA18
:1019C000C30C802303FA0CF338F816C0034113EA62
:1019D0000C0F01D10C2906D9012383401CEA030F07
:1019E00003D10C2901D9618800E021887980401C4D
:1019F00091888142E0D86D1CADB24946284600F07E
:101A0000B3F8761C6268D088B042D1D8BDE8F083C4
:101A10002401002000B5012197B0084600F0E4FA47
:101A200005200F9000200921CDE910011490042118
:101A30001590CDE9001012901021CDE9020113900C
:101A400004900590069009020790CDE908010A90DC
:101A50000B900C900FA80D900E906846FFF7F0FACF
:101A600001210420FFF7DCFA17B000BD01484068EF
:101A7000704700002401002010B500F021FB002079
:101A800000F028FD012000F025FD022000F022FDDD
:101A9000032000F01FFD0020FFF78CFE002000F067
:101AA0005BF84FF6FF74204600F06AF8FFF7DEFFA0
:101AB0000EA10020FFF754FFFFF7D8FFC08811A147
:101AC000FFF74EFFFFF7D2FFC08814A104EA4000E1
:101AD000FFF746FFFFF7CAFFC088BDE8104000EBE4
:101AE000400080B213A1FFF73BBF00002020202060
:101AF0002053544D33324634783720202020202084
:101B000000000000202053544D3332462D34205322
:101B10006572696573202020000000002049415053
:101B2000206F7665722045746865726E657420203A
:101B30000000000020202020202020202020202025
:101B40002020202020202020000000004FF0D04145
:101B5000088048887047000001B5BDF800000149C1
:101B6000488008BD240100200B4600B50146202016
:101B700000F00EF8194621205DF804EB00F008B8DB
:101B800001B5BDF800000149088008BD240100200E
:101B90004FF0D042108051807047000070B5644D06
:101BA00000268AB028784FF6FF74002840D001281C
:101BB0005FD160484168E96000295CD0022028704C
:101BC0005C4801F0BFFDE868050EC0F30741CDE9B0
:101BD0000015C0F30723C2B257A102A800F0D2FD3E
:101BE000FFF744FFC08804EA8000FFF7F7FDFFF726
:101BF0003DFFC08800EB800080B2FFF7EFFDFFF7EC
:101C000035FFC08800EB400004EA4000FFF7E6FD26
:101C1000FFF72CFFC0884CA1C0EBC00080B2FFF7DB
:101C20009FFEFFF723FFC0884DA104EAC0006FE0CC
:101C3000404801F039FD0120EE602870FFF716FFE3
:101C4000C0884DA104EA8000FFF78AFEFFF70EFF6F
:101C5000C0884FA100EB800080B2FFF781FEFFF744
:101C600005FFC08850A100EB400004EA4000FFF7E8
:101C700077FE0AB070BD006AC07C0428F9D9032041
:101C800028702C4801F05EFD4D4802F035F90790B0
:101C90006FF0FF0002F030F908904948093802F06F
:101CA0002BF9099009AB08AA07A9224803F069FBA0
:101CB000FFF7DCFEC08843A1C0EBC00080B2FFF795
:101CC0004FFE0A20CDE90060A823C02243A102A84C
:101CD00000F058FDFFF7CAFEC08804EA8000FFF755
:101CE0007DFDFFF7C3FEC08800EB800080B2FFF7E8
:101CF00075FDFFF7BBFEC08800EB400004EA400022
:101D0000FFF76CFDFFF7B2FEC08838A104EAC000FF
:101D1000FFF726FEFFF7AAFEC08802A900EBC0006D
:101D200080B2FFF71DFE002000F0F8FBA1E70000E5
:101D300040000020600100202025642E25642E250F
:101D4000642E2564000000004950206164647265BF
:101D500073732061737369676E656420000000000F
:101D600020206279206120444843502073657276B8
:101D7000657220200000000020202020204C6F6F82
:101D80006B696E6720666F722020202000000000C3
:101D900020202020204448435020736572766572CD
:101DA00020202020000000002020202020706C65D2
:101DB00061736520776169742E2E2E20000000006B
:101DC0000A00A8C020202020444843502074696D98
:101DD000656F7574202020200000000020202564FD
:101DE0002E25642E25642E256400000020205374C7
:101DF0006174696320495020616464726573732063
:101E00002020000000B587B003F078F903F052FA03
:101E1000002003900490094A094905908DE80700C5
:101E200005AB04AA03A9074803F080FA054803F0AC
:101E3000B9FA044803F002FB07B000BDB13C00084A
:101E4000053D00086001002031B51B4C0098616819
:101E5000401AFA2803D30098606005F04BFB009805
:101E6000A168401A41F28831884203D30098A060EB
:101E700001F0F4FE00982169401AB0F5FA7F0DD305
:101E80000098206101F06EF82078022806D003281F
:101E900004D0002000F04EFBFFF780FE009861693F
:101EA000401A4EF66021884205D300986061BDE873
:101EB000384000F0F1BE38BD40000020014801F07C
:101EC00035BF000060010020FEE7704770B50F21AC
:101ED000C478027801234FF0E026E4B1124C246864
:101EE00004F4E064C4F5E064C4F30724C4F1040519
:101EF000E1404478AC4085780D4025430B4C2901E6
:101F00001155007800F01F018B40400906EB80005E
:101F1000C0F8003170BD02F01F008340500906EB8D
:101F20008000C0F8803170BD0CED00E000E400E0FE
:101F30000249084302490860704700000000FA05A2
:101F40000CED00E02DE9FC470027184E894680463D
:101F50003D460124376107E008EB070010221449D1
:101F6000FEF779F948B17F1C4F45F5D33069C8B108
:101F7000002108EB00036A4605E010373761F5E7FA
:101F80005754491C401C5F5C0D2FF9D1306149B199
:101F9000491E07D4505C303800FB045504EB840024
:101FA0004400F5E72846BDE8FC8700000C0000204F
:101FB0005E83000870470000044A0029116801D0C0
:101FC000014300E081431160704700003038024057
:101FD000044A0029116801D0014300E081431160E7
:101FE0007047000010380240044A0029116801D0EF
:101FF000014300E08143116070470000383802401F
:10200000044A0029116801D0014300E081431160B6
:10201000704700004438024070B5204A1168204CD7
:1020200011F00C0104D01F4E042903D0082903D05D
:1020300004601BE0066019E01849091F0B68C3F330
:1020400080550B6803F03F0315B1B6FBF3F301E0D5
:10205000B4FBF3F30C680968C4F388146343C1F359
:102060000141491C4900B3FBF1F1016011680F23E4
:1020700003EA11110C4B5C5C0168E140416014689B
:10208000072505EA94241C5D21FA04F48460126893
:1020900005EA52329A5CD140C16070BD08380240F6
:1020A0000024F40040787D0105010020034A1368F4
:1020B000084323F0EC63184310607047083802406F
:1020C0002DE9F84F00200090FFF7A0FBFFF7A2FCDE
:1020D000052000F043FD0020FFF738FDA0F5134177
:1020E0004FF480764FF4E06740F2022341F2B0757E
:1020F00040F2371840F239194FF4E85A40F2023BE7
:1021000041F21804009020397ED1F101E520FFF75B
:102110003FFD01210020FFF73BFD31460120FFF785
:1021200037FD39460220FFF733FD41F2300103202D
:10213000FFF72EFD00210420FFF72AFD1946082095
:10214000FFF726FD00210920FFF722FD00210A20CC
:10215000FFF71EFD00210C20FFF71AFD00210D20C6
:10216000FFF716FD00210F20FFF712FD00211020C0
:10217000FFF70EFD00211120FFF70AFD00211220BC
:10218000FFF706FD00211320FFF702FD142000F0E9
:10219000E5FC29461020FFF7FBFC41461120FFF724
:1021A000F7FC052000F0DAFC49461220FFF7F0FCAE
:1021B000052000F0D3FC51461320FFF7E9FC132162
:1021C0002920FFF7E5FC052000F0C8FC00212020B5
:1021D000FFF7DEFC00212120FFF7DAFC062130208A
:1021E000FFF7D6FC21113120FFF7D2FC032132206A
:1021F000FFF7CEFCB11D3520FFF7CAFC40F60231D7
:102200003620FFF7C5FC00E06BE059463720FFF7AA
:10221000BFFCF91D3820FFF7BBFC07213920FFF771
:10222000B7FC4FF4C0613C20FFF7B2FC40F20B2139
:102230003D20FFF7ADFC00215020FFF7A9FCEF2166
:102240005120FFF7A5FC00215220FFF7A1FC40F22E
:102250003F115320FFF79CFC4FF41C516020FFF707
:1022600097FC01216120FFF793FC00216A20FFF712
:102270008FFC00218020FFF78BFC00218120FFF7DD
:1022800087FC00218220FFF783FC00218320FFF7D9
:102290007FFC00218420FFF77BFC00218520FFF7D5
:1022A00077FC10219020FFF773FC00219220FFF7AC
:1022B0006FFC03219320FFF76BFC4FF4887195208E
:1022C000FFF766FC00219720FFF762FC00219820B1
:1022D000FFF75EFC21460320FFF75AFC40F2731122
:1022E000EDE0A0F5134125397ED101210020FFF753
:1022F0004FFC31460120FFF74BFC39460220FFF727
:1023000047FC21460320FFF743FC00210420FFF790
:102310003FFC19460820FFF73BFC00210920FFF78E
:1023200037FC00210A20FFF733FC00210C20FFF7C7
:102330002FFC00210D20FFF72BFC00210F20FFF7C1
:1023400027FC00211020FFF723FC00211120FFF7BC
:102350001FFC00211220FFF71BFC00211320FFF7B8
:1023600017FC142000F0FAFB29461020FFF710FCA0
:1023700041461120FFF70CFC052000F0EFFB494619
:102380001220FFF705FC052000F0E8FB5146132062
:10239000FFF7FEFB13212920FFF7FAFB052000F0D1
:1023A000DDFB00212020FFF7F3FB00212120FFF7B8
:1023B000EFFB07213020FFF7EBFB59463120FFF7F9
:1023C000E7FB40F2051319463220FFF7E1FB40F22C
:1023D000062529463520FFF7DBFB40F60806314687
:1023E0003620FFF7D5FB00E06CE029463720FFF7E9
:1023F000CFFB40F204513820FFF7CAFB07213920F8
:10240000FFF7C6FB19463C20FFF7C2FB31463D20D3
:10241000FFF7BEFB00215020FFF7BAFBEF21512050
:10242000FFF7B6FB00215220FFF7B2FB40F23F114D
:102430005320FFF7ADFB4FF427416020FFF7A8FBC7
:1024400001216120FFF7A4FB00216A20FFF7A0FB18
:1024500000218020FFF79CFB00218120FFF798FBE3
:1024600000218220FFF794FB00218320FFF790FBDF
:1024700000218420FFF78CFB00218520FFF788FBDB
:1024800010219020FFF784FB00219220FFF780FBB2
:1024900003219320FFF77CFB4FF488719520FFF711
:1024A00077FB00219720FFF773FB00219820FFF7AF
:1024B0006FFB21460320FFF76BFB40F2331107202F
:1024C000FFF766FB0248A0F108014860BDE8F88FFD
:1024D0002C0100201CB504460E48012150F82400B0
:1024E000FFF76AFD0B4800210A3830F8140000900D
:1024F00001208DF804008DF806108DF807000220E9
:102500008DF805000448694650F82400FEF7F8FDF0
:102510001CBD0000CC950008440100200349044A7A
:1025200031F8101052F8200001837047C29500085E
:1025300044010020044951F820104A69034B33F844
:10254000100042404A61704744010020C2950008D3
:102550000349044A31F8101052F82000FEF731BE4A
:10256000A49500085401002070B5044625480E4685
:1025700086B050F824000121FFF71EFD01218803D9
:10258000FFF73EFD1F4800258DF8105038388DF8B4
:10259000135030F8140003901B4803A950F824008E
:1025A000FEF7AEFD012E2BD11648263810F8141078
:1025B000801F10F8140000F031F81248323830F85B
:1025C000140000908DF804500CB10C2000E008209D
:1025D0008DF8050001258DF806506846FEF74EFB84
:1025E0000848203810F814008DF808000F208DF8E6
:1025F00009008DF80A008DF80B5002A8FFF766FC61
:1026000006B070BDDC950008540100207047000042
:102610000149086070470000DC00274210B58A07B6
:1026200021F003040649130F21440F220C689A403D
:1026300094430C600A68984002430A6010BD000091
:10264000083801400CB500202749019000900A6825
:1026500042F480320A604FF4A0630A6802F4003248
:102660000092019A521C0192009A12B9019A9A4260
:10267000F3D10A68920334D5012000901A48403003
:10268000026842F0805202601848026842F48042B8
:1026900002601548083002680260026842F4004295
:1026A0000260026842F4A0520260031F104A1A60DE
:1026B0000A6842F080720A600A689201FCD50D4AED
:1026C00040F205611160016821F0030101600168B9
:1026D00041F0020101600168C1F381010229FAD1D0
:1026E0000CBD00900CBD000000380240007000409E
:1026F00019544007003C02404FF0E02104280869CB
:1027000003D020F004000861704740F00400FAE7AD
:1027100000F02EB8124810B5016841F47001016054
:102720001048016841F0010101600E4A00210832A1
:10273000116002680C4B1A400260031D0B4A1A60BC
:10274000026822F48022026006480C300160FFF724
:1027500079FF03494FF000608039086010BD000028
:1027600088ED00E000380240FFFFF6FE1030002444
:10277000024801680A310160704700003000002003
:10278000FEE700000FB4084B10B504A902AA039895
:1027900000F01CF8044602A9002000F0F3F82046DF
:1027A00010BC5DF814FB00008529000802E008C891
:1027B000121F08C1002AFAD170477047002001E0BB
:1027C00001C1121F002AFBD1704700002DE9FF4F05
:1027D0008BB09A460F4605460026C9E0252837D11A
:1027E00000246D1C6649A04601222B78203B02FA8A
:1027F00003F0084202D004436D1CF6E728782E2827
:1028000017D115F8010F44F004042A280ED06FF0F8
:102810002F022878A0F1300109290AD808EB880195
:1028200002EB410100EB01086D1CF2E757F8048B45
:102830006D1C287869283FD006DC002871D06328F9
:102840000CD0642804D137E0732811D075284ED0FD
:1028500052460D99904706F1010688E017F8040BDF
:102860008DF8000000208DF80100E946012003E00A
:1028700057F8049B4FF0FF3061074FF0000401D47C
:102880000AE0641C44450DDA8442FADB19F80410AE
:102890000029F6D106E0641C8442FCDB19F8041020
:1028A0000029F8D1264404E019F8010B52460D998D
:1028B0009047641EF8D25AE001CF4FF00A0B00286F
:1028C00004DAC0F100004FF02D0102E0210504D52B
:1028D0002B218DF82410012103E0E10705D02021F0
:1028E000F7E70DF1200908910CE00021F9E701CF8D
:1028F0004FF00A0BF9E75946FDF7BCFC01F1300235
:1029000009F8012D0028F6D1ADEB090000F1200BEC
:10291000600701D44FF00108D84503DDA8EB0B0098
:1029200001E029E000208046002406E009A8524684
:10293000005D0D999047761C641C08988442F5DB75
:1029400004E0302052460D999047761CB8F1000102
:10295000A8F10108F5DC05E019F8010B52460D99C4
:102960009047761CBBF10001ABF1010BF4DC6D1C50
:10297000287800287FF432AF0FB03046BDE8F08FE2
:10298000092801000A68531C0B6010707047000092
:102990001FB5416A064B0122CDE90013CDE90212B1
:1029A00000F12B031946034A01F0CEF804B010BD24
:1029B000B6830008B08300087CB50446406A00284E
:1029C00031D0007900282ED02434E0798DF8000031
:1029D000207A8DF80100607A8DF80200A07A8DF8D7
:1029E0000300E07A8DF80400207B8DF8050054F890
:1029F0002409D1F80E208D6903790831012B13D0F9
:102A0000022B01D143797BB1006882420BD10622AF
:102A10006846FDF713FC002805D0606A007A78B19B
:102A2000204600F015F87CBD00688242F8D085424F
:102A3000F9D106226846FDF701FC0028F0D17CBDE3
:102A40002046FFF7A5FF616A642008727CBD000084
:102A50002DE9F04105460027446A02F08DFC10B1D3
:102A6000284602F0A5FC00266E60AE60EE6044B31E
:102A70002671E6806671266084F80860B5F82F003C
:102A8000164E304401F038FA02F0E6FC696A497AE1
:102A90000844134980B20843B04201D200F57E4099
:102AA0001049884201D9A0F57E4001F025FA206046
:102AB000607A401C6072284600F016F83846BDE87F
:102AC000F0810A2002F034FB040004D02660666026
:102AD00026816C62D2E74FF0FF30F0E70001FEA9DB
:102AE0000000FEA9FFFEFEA910B550F8241F012228
:102AF0000A7100224A71C27A037B447A42EA036275
:102B0000837A00681B0443EA04231A4300B1407A25
:102B100010440A22B0FBF2F302FB1300C880487A8B
:102B20000A2802D94FF41670C88010BD70B50D4642
:102B30000446002102F07CFF0021204604F08AFBBD
:102B40000021204604F04AFA284602F0C1FA204645
:102B5000BDE8704002F0CCBF02F0BABA01B581B056
:102B60000449019848430090002801D0401EFAE72C
:102B70000CBD0000A086010000280BD0026A002ACC
:102B800008D0937C082B05D10968926A914201D143
:102B900000F034B9704700002DE9FC41050062D017
:102BA0002C6A002C5FD0A06C4FF03C01471C4FF406
:102BB00080364FF6FF724FF001030AD01E30B0FB93
:102BC000F1F0B04200D310460004000C208400D184
:102BD0002384E06C471C0AD01E30B0FBF1F1B142F7
:102BE00000D311460804000C608400D1638414F102
:102BF0002C0000D0E06A009070B902F02DFC000EAD
:102C00007F2802D84FF07F4003E0C0280BD36FF03D
:102C1000FF0001F071F9009014F1300000D0206B3A
:102C2000019010B10BE01148F3E7A06A0099084049
:102C30000190012001F060F901990843019004F12D
:102C40002801284602F0C2FB6946284602F0F2FB42
:102C500001A9284602F0B5FB284602F0EFFB0A2145
:102C6000204600F019FDBDE8FC8100000000FFFFD8
:102C700070B5046A05460821204600F00DFD0022CB
:102C800004F12801284600F0DFFEE07C401CE074DF
:102C90000120E08370BD0000164810B5046825E0EF
:102CA000216A11B3488C421E4A84012806D0226A48
:102CB000118C481E108401290CD016E0216A204690
:102CC000897C012903D00A2901D005290DD100F002
:102CD0008FFA0AE0216A2046897C012903D00A295B
:102CE00001D0052901D100F013FC2468002CD7D1B4
:102CF00010BD00009000002070B506000DD0346AB1
:102D000074B100224FF49A71104602F0A9FB606181
:102D100048B1E27C37494AB10BE06FF0090070BD61
:102D20006FF0080070BD4FF0FF3070BD0A68521C94
:102D30000A600968216041680120A1610870A169E9
:102D400000254870A16906208870A069C5702068B8
:102D500001F0D2F8A1694860A0690581A0694581A8
:102D6000A069C560A07C0A2803D0052801D00428EA
:102D700002D1A1697068C860A0695FF000010561B7
:102D8000A0694561A069856196F82A00884203D947
:102D9000701890F82B0000E0002001F11C02A369DC
:102DA000491C89B298541029EED3002000F12C015F
:102DB000A269401C80B255544028F7D35FF0000050
:102DC00000F16C01A269401C80B255548028F7D3F1
:102DD000094801F091F8A169C1F8EC00A583002031
:102DE000A26900F1F0015054401C80B24428F7D38E
:102DF000002070BD7800002063538263F8B5046A38
:102E000006460C21204600F047FC3046FFF774FFD1
:102E1000050027D101223521204600F087F9042141
:102E2000204600F093F904223221204600F07EF97A
:102E3000A06A02F011FB0146204600F08FF92046FF
:102E400000F0BEF9A08BF03081B2606902F084FC22
:102E500000964323074A6169606804F037FD3046F5
:102E600000F00AF8E07C401CE0741420E08328465F
:102E7000F8BD00007383000810B5002809D0046A6B
:102E8000002C06D0606908B102F014FC00206061DB
:102E9000A06110BDF8B50546046A304806210068F7
:102EA000A062204600F0F8FB2846FFF725FF060049
:102EB00039D101223521204600F038F90121204680
:102EC00000F044F902223921204600F02FF9298D23
:102ED000204600F064F904223721204600F026F94C
:102EE0000121204600F032F90321204600F02EF99E
:102EF0001C21204600F02AF90621204600F026F980
:102F0000204600F05DF9A08BF03081B2606902F0DC
:102F100023FC00954323124A6169606804F0D6FCE3
:102F20002846FFF7A9FFE07C401CC0B2E0740628E9
:102F300002D20121814000E03C2101EB4100C0EBC5
:102F4000C1104FF6FF7101EAC00000F2F3104FF418
:102F5000FA71B0FBF1F0E0833046F8BD6F830008F2
:102F60007383000870B50B48002504680EE0206AE2
:102F700058B1C18B012903D9A1F10101C18304E03A
:102F800003D1C583204600F0F4FB2468002CEED169
:102F900070BD00009000002070B5044680680025D8
:102FA00010B102F095F8A560E068002803D002F0A7
:102FB0008FF8E560258270BD01784278090641EA04
:102FC00002418278C07841EA02210843704770B517
:102FD000C368002473B3068A66B3002210E0342D60
:102FE00003D08D4206D1981870BD921C92B29C5CA1
:102FF000521C04E0521C92B29D5C521C2A4492B2B4
:10300000964202D99D5CFF2DE9D19CB1012C07D0DD
:103010008068022C00F12C0006D0C023002212E0B0
:1030200080686C308023F9E74023F7E78C4202D1B7
:10303000104470BD0AE0521C92B2845C521C2244BF
:1030400092B29A4202D2845CFF2CEFD10020F0E7CA
:1030500070B5046A00203321E0622063606320467B
:10306000FFF7B5FF18B1801CFFF7A6FF60643A2197
:103070002046FFF7ACFF18B1801CFFF79DFF01E071
:10308000606C4008A0643B212046FFF7A0FF18B108
:10309000801CFFF791FF00E0606CE064A06810F115
:1030A000100131D00069A06201212046FFF78FFF97
:1030B00028B1801CFFF780FF00F01EFFE0620321B3
:1030C0002046FFF784FF28B1801CFFF775FF00F052
:1030D00013FF20631C212046FFF779FF28B1801CD5
:1030E000FFF76AFF00F008FF606306212046FFF744
:1030F0006EFF060019D070788008A063022801D9FD
:103100000220A06300250DE00020CCE706EB85003F
:10311000801CFFF751FF00F0EFFE04EB85016D1CF2
:10312000EDB2C863A06BA842F0D870BD10B5838B18
:1031300084691C445B1C838384F8F010818B836951
:103140000B44491C818383F8F02010BD828B836976
:103150001344521C828383F8F010704710B5828BA1
:1031600084690B0E1444521C828384F8F030828BE5
:1031700084690B0C1444521C828384F8F030828BD7
:1031800084690B0A1444521C828384F8F030828BC9
:1031900083691344521C828383F8F01010BD10B56C
:1031A000828B84690B0A1444521C828384F8F030A9
:1031B000828B83691344521C828383F8F01010BD04
:1031C000002814D0818B8369FF220B44491C818322
:1031D00083F8F020002205E083690B44491C8183B9
:1031E00083F8F020818B4429F6D38B07F4D1704704
:1031F000F8B5046A05460421204600F04DFA284639
:10320000FFF77AFD060024D1012235212046FFF781
:103210008DFF03212046FFF799FF02223921204626
:10322000FFF784FF298D2046FFF7B9FF2046FFF7FF
:10323000C7FFA08BF03081B2606902F08DFA009573
:1032400043230F4A6169606804F040FB2846FFF79A
:1032500013FEE07C401CC0B2E0740A2803D24FF495
:103260007A71484301E042F2107080B200F2F3102C
:103270004FF4FA71B0FBF1F0E0833046F8BD000086
:1032800073830008F8B5046A06460321204600F05F
:1032900003FA3046FFF730FD050031D10122352118
:1032A0002046FFF743FF03212046FFF74FFF02228E
:1032B00039212046FFF73AFF4FF410712046FFF7FF
:1032C0006EFF042232212046FFF730FFA06A02F091
:1032D000C3F801462046FFF741FF2046FFF770FF85
:1032E000A08BF03081B2606902F036FA0096432379
:1032F0000E4A6169606804F0E9FA3046FFF7BCFDE8
:10330000E07C401CC0B2E0740A2803D24FF47A710A
:10331000484301E042F2107080B200F2F3104FF423
:10332000FA71B0FBF1F0E0832846F8BD7383000822
:103330002DE9F0410446056A5089516816462C284B
:103340007FD3087802287CD1002094F82A2008E056
:1033500023180F1893F82B303F7FBB4271D1401CCC
:10336000C0B28242F4D8486802F076F829688842F0
:1033700067D13146284600F040FA002861D1352156
:103380002846FFF724FE00285BD080780027052818
:1033900004D0062819D0022839D052E0A87C012890
:1033A00006D003280CD004280AD0052808D048E00D
:1033B0002046FFF74DFEEF832046FFF759FC40E023
:1033C000EF832046FFF7E8FB3BE0A87C032805D00D
:1033D000012803D0042801D0052832D1EF832046EC
:1033E000276A01F0E5FF1C49204601F0EFFF1A496A
:1033F000204601F0E6FF1849204602F01BF80C2198
:10340000384600F049F92046FFF744FD19E0A87C52
:10341000062816D1EF832746246A36212046FFF777
:10342000D6FD70B1801CFFF7C7FD00F065FD60623E
:10343000A06810F110010CD00069A062384600F0BD
:10344000AFF82846FFF7A8FD3046BDE8F04102F08E
:1034500031B90020F1E700006F830008F8B5046A75
:1034600005460D21204600F017F900206062E06259
:10347000A06260632063E064A0646064A063284687
:10348000FFF73AFC06001CD1012235212046FFF748
:103490004DFE07212046FFF759FE2046FFF790FE1C
:1034A000A08BF03081B2606902F056F90095432399
:1034B00004F124026169606804F008FA2846FFF705
:1034C000DBFCE07C401CC0B2E0740A2803D24FF45D
:1034D0007A71484301E042F2107080B200F2F310BA
:1034E0004FF4FA71B0FBF1F0E083284601F060FF81
:1034F0000649284601F06AFF0449284601F061FFA9
:103500000249284601F096FF3046F8BD6F83000857
:10351000F8B5046A05460521204600F0BDF82846A6
:10352000FFF7EAFB060025D1012235212046FFF7EF
:10353000FDFD03212046FFF709FE02223921204626
:10354000FFF7F4FD298D2046FFF729FE2046FFF7FF
:1035500037FEA08BF03081B2606902F0FDF8009573
:10356000432304F124026169606804F0AFF928463E
:10357000FFF782FCE07C401CC0B2E0740A2803D252
:103580004FF4FA61484301E044F6206080B200F253
:10359000F3104FF4FA71B0FBF1F0E0833046F8BD60
:1035A000F8B5046A05460121204600F075F8284662
:1035B000FFF7A2FB060051D1012235212046FFF77B
:1035C000B5FD03212046FFF7C1FD02223921204627
:1035D000FFF7ACFD298D2046FFF7E1FD04223221E3
:1035E0002046FFF7A3FDA06A01F036FF0146204602
:1035F000FFF7B4FD042236212046FFF797FD606AED
:1036000001F02AFF01462046FFF7A8FD04223721DA
:103610002046FFF78BFD01212046FFF797FD032190
:103620002046FFF793FD1C212046FFF78FFD062162
:103630002046FFF78BFD2046FFF7C2FDA08BF03040
:1036400081B2606902F088F800954323114A6169EC
:10365000606804F03BF92846FFF70EFCE07C401C54
:10366000C0B2E074062802D20121814000E03C2172
:1036700001EB4100C0EBC1104FF6FF7101EAC00041
:1036800000F2F3104FF4FA71B0FBF1F0E083304632
:10369000F8BD000073830008827C8A4202D08174E6
:1036A0000021C1747047000070B5040030D094F858
:1036B0003100256A20F0080084F83100208D4FF099
:1036C000FF36B0F5107F21D32DB3686808B104F040
:1036D000D3F850212846FCF78CFD04F0BDF8686053
:1036E00000B34422154903F08FFF43221349686851
:1036F00003F0B8FF22461249686804F0BAF8204681
:10370000FFF7C8FBA0B1204600F01CF8304670BDA2
:103710006FF0090070BD502001F00AFD0500F5D0E2
:103720002562D6E7284601F0D3FC00202062EDE7B1
:1037300014F8311F41F00801217070BD6F8300083B
:103740003133000870B5056A040011D094F83100D7
:10375000002D20F0080084F8310009D068680026A8
:1037600010B104F089F86E60284601F0B1FC2662C1
:1037700070BD10B5026A0446917C0C2913D006294D
:1037800011D0012913D008291ED0052928D00429D9
:103790002AD0032930D1D07C022813D22046BDE89C
:1037A0001040FFF76FBDBDE81040FFF773BBD07C42
:1037B000052804D82046BDE81040FFF7F1BE20469A
:1037C000FFF74CFE2046EEE7D07C0128204603D8C8
:1037D000BDE81040FFF74CBABDE81040FFF7DCB978
:1037E000BDE81040FFF794BED07C0828E7D82046FB
:1037F000BDE81040FFF7FCBC10BD2DE9F0410E46BE
:10380000040022D0FFF7C8FB308900256F1EF02886
:1038100006D9F03880B2208201F08AFCE060B8B1AD
:10382000F02001F085FCA060010013D00023F022FD
:10383000304601F00BFFE16821B1228AF0233046C7
:1038400001F004FF0020BDE8F0816FF00900FAE705
:10385000258205E0E06818B101F03AFCE560F7E781
:103860003846F0E72DE9F84391468846060074D0C3
:10387000B9F80A002A286DD3D9F80450012005F1BF
:103880000E0400F03BFB2188884263D140F20460C3
:1038900000F034FBA18888425CD14FF4006000F056
:1038A0002DFB6188884255D140F6060000F026FBCA
:1038B000A98988424ED121463046FFF77DF8D4F8D9
:1038C0000E000090A169706820B1814202D10127E9
:1038D0003B4601E000273B4604F1080269463046BA
:1038E00004F04CF8E08800F009FB012802D002281F
:1038F00030D12BE04FB3022000F000FBE080D4F881
:103900000E00A0617068C4F80E00706A062118B13C
:10391000007908B1124801E004F108000246491E8E
:1039200011F0FF0104EB0100037A8374535C6B54C4
:1039300018F80130037205EB010318F801009871C3
:10394000EDD1B26949463046904703E069463046BA
:10395000FFF712F9484601F0ADFEBDE8F88300001C
:10396000B083000830B4002810D04A6883684568E6
:10397000D2F81A401D401C4002F10E01AC4205D1A4
:103980000023921D30BC0C3103F0F8BF30BC7047EF
:103990002DE9FC410E46054614460E21304601F045
:1039A000ABFE18B16FF00100BDE8FC81294620464E
:1039B00000F0C1FE08B1234B28E04FF0704001F049
:1039C0004BFD216800EA01074FF0604001F044FD23
:1039D000874222D101208DF8000000208DF80100DF
:1039E0005E208DF80200206801F036FDC0F306402D
:1039F0008DF80300206801F02FFD000A8DF8040007
:103A0000206801F029FD8DF805006B4605F12B02B9
:103A10003146284600F006F9C6E7A86821686A68BA
:103A200001400240914203D0E86838B105F10C042E
:103A300032462146284600F007F8B5E76FF003004C
:103A4000B2E70000B08300082DE9F05F0D46824622
:103A500000F12B0B14464FF0FF385146284600F07A
:103A60006AFE08BB4FF0704001F0F6FC296800EADE
:103A700001064FF0604001F0EFFC864214D09DB18A
:103A8000286888B10121284600F064F900280DDB80
:103A9000DFF8B09000EB800609EB8607B87B38B101
:103AA000012807D034B10BE06FF00900BDE8F09FAA
:103AB0000120B8732946504600F0A2F8804604B3AE
:103AC000B87B4D46022802D0012808D038E007F123
:103AD00008035A462146504600F0A4F82FE020463D
:103AE000017B01290ED001890022032001F0B8FCDE
:103AF000070025D0214601F061FD58B1384601F09C
:103B0000D9FD1DE000680028EAD12746204601F0D3
:103B10004AFEAFB1062001F0F9FB0100EED0002013
:103B2000C1E9000755F8260008B905E0104602680B
:103B3000002AFBD1016001E045F8261000208046F4
:103B40004046B3E7304000202DE9F05F93468946B8
:103B50000746984600222A210320DDF82CA001F018
:103B60007FFC06000DD075680D9805F10E0400F07D
:103B7000C5F9E080796A062039B1097929B11F4970
:103B800004E04FF0FF30BDE8F09F5946401E10F0B2
:103B9000FF0004EB000218F8003013721AF800302E
:103BA00093740A5C2A5405EB000319F800209A71FB
:103BB000ECD10A980068C4F80E000C980068A06167
:103BC000012000F09BF920804FF4006000F096F98E
:103BD000608040F2046000F091F9A08040F6060099
:103BE00000F08CF9A881BA693146384690470446FE
:103BF000304601F05FFD2046C5E70000B0830008B5
:103C00001FB50123064C021DCDE90213CDE90024A6
:103C100000F12B031946A21FFFF796FF04B010BD59
:103C2000B68300082DE9F0414D680E46074606248C
:103C3000641E14F0FF0405EB0401185D2855105DA7
:103C40008871F5D14FF4006000F058F9A881314631
:103C50003846BA69BDE8F041104700002DE9F0414F
:103C60000025124CA84600BF05EB850704EB87062C
:103C7000F07B401CC0B2F073B17B022902D0012955
:103C800003D00DE0F02802D20AE0022808D354F84D
:103C9000270018B100F008F944F8278086F80E8054
:103CA0006D1CEDB20A2DDFD3BDE8F081304000205D
:103CB00070B5044640680D46808900F01FF9B0F5E4
:103CC000006F04D0A0F5006006380AD112E021464A
:103CD0002846FFF747FE6FF00D01204601F00CFD6E
:103CE00018B1204601F0E6FC0AE02946204600F023
:103CF000D1FD05E0224605F12B012846FFF7B2FD74
:103D0000002070BD10B5732180F83210742180F846
:103D10003310044941610449816101F0EBF800204E
:103D200010BD000091390008ED4F000870B5054640
:103D300001F01CF9040009D02A69294690470500C2
:103D400002D0204601F0B6FC284670BD4FF0FF308F
:103D500070BD00002DE9F35F4FF00A0A4FF000013B
:103D6000DFF83CB10400D14652460D460E46574698
:103D70000B4616D04B4890F8008008EB880C0BEBF4
:103D80008C0090F80EC0BCF1020F0AD1D4F800C02C
:103D90004068844505D14FFA88F0BDE8FC9F0A2AA7
:103DA00007D1DFF8FCE001EB810C0EEB8C00807B8F
:103DB00060B101EB810B0EEB8B0090F80EC0BCF1F3
:103DC000010F05D0BCF1020F1AD02AE04AB228E058
:103DD0002CB1D4F800C0D0F80480C44517D05EF8E8
:103DE0002BC0C07BBCF1000F04D0984219D34FB256
:103DF000034616E0A84214D34FFA81FA054610E0B4
:103E00004CB1D4F800C0D0F80480C44503D1254893
:103E1000017048B2C1E7C07BB04202D34FFA81F9CA
:103E20000646491CC9B20A29B9D301994FF0FF309F
:103E30004FF000080A2A05D08907AED40A2A06DA0C
:103E4000D5B21CE0C907A8D001998907A5D4B9F15A
:103E50000A0F02DA09F0FF0511E0BAF10A0F02DADF
:103E60000AF0FF050BE00A2F97DAFDB20C4E05EBC6
:103E7000850756F8270000F017F846F8278008480D
:103E800005EB850200EB8200414680F80E800CB104
:103E900022684260C1730348057068B27DE7000084
:103EA000304000200401002070B5044608E025469B
:103EB000D5E9004001F0FEFB2946062001F0EEF9AD
:103EC000002CF4D170BD000070B50D460646094CBB
:103ED00005E030466168FCF7A3F920B12468002CA6
:103EE000F7D1002070BDA0682860E06868600120FC
:103EF00070BD00004083000800BA704740BA7047A8
:103F000010B50C46082001F013F9010014D0002070
:103F100008604860204601F08BFD0949204603F007
:103F20005DF80849204601F0DEFF0A2206492046D6
:103F300002F08AFC002010BD4FF0FF3010BD0000E1
:103F4000693F0008592B00084D3F000810B50A468C
:103F500028B10146104601F08BFC002010BD084638
:103F600001F0C6FDF9E700002DE9FF4F99B00446C6
:103F70004FF0000A1C981746CDF810A0CDF814A0F9
:103F800000283ED1002F3CD039891A9803F03BF825
:103F9000206800282ED17D683E890522FBA1284695
:103FA000FCF759F9DFF8EC9300282ED01422FAA17F
:103FB0002846FCF750F999F80210084357D0102210
:103FC000FBA12846FCF747F910B1D9F8040020B14D
:103FD00099F80210484601296ED04FF47840FDF759
:103FE000CFFDFDF743FDC088F6A100EBC00080B215
:103FF000FDF7B6FC384601F05DFB21461A98FEF746
:1040000095FD1C9838437DD0BBE11122F2A12846D2
:10401000FCF721F9C0B999F802004D46022813D1E6
:104020000320A87004A9F1A0FFF74EFF04982060B8
:1040300005986060384601F03DFB21461A9801F072
:1040400017FC0120687004E089F802A004A9EAA026
:1040500024E0EC491A9803F0FDF8D2E705EB0800DC
:104060000922E9A1FCF7F7F828B108F10100804620
:10407000B042F3DBC5E7E7A3E8A2EAA111A8FEF787
:1040800081FB05EB08001A2211A9FCF7E4F80028CF
:10409000DAD1012089F8020004A9E8A0FFF714FF93
:1040A0000498206005986060384601F003FB2146C3
:1040B0001A9801F0DDFBCCE740684FF0000870BBB8
:1040C000C9F814A0C9F80CA039892846FDF73AFFB1
:1040D000C9F80800002008E005EB08000D22DB49C4
:1040E000FCF7B9F890B108F101008046B042F3DB6B
:1040F000D9F80410491CC9F8041001213846C9F840
:10410000141000E02CE101F0D5FA3AE118F11008A2
:10411000EED0D9F81010711A091FC9F80C10D9F88F
:104120000400CB46012803D1DBF8140001281BD082
:10413000DBF804105846DBF81420114314D0C16892
:104140003144CBF80C1000BF05EB0809DBF8182050
:10415000A6EB080802EB0801CBF81810DBE9020116
:1041600081427DD104269FE0DBF804205846DBF82D
:1041700014100A4303D04268012A04D005E04168C4
:10418000491C416001E0012901D0002021E000200C
:1041900009E000BF05EB09000D22AC49FCF75BF814
:1041A00058B109F101008146B042F3DBDBF80C1095
:1041B00058463144CBF80C10E1E709F11008F5E757
:1041C00005EB09000922A2A1FCF745F828B109F185
:1041D00001008146B042F3DB4BE019F10A014FF0D8
:1041E000000008AA45D029440B5C222B04D00D28DE
:1041F00002DA1354401CF7E702F800A088B34FF628
:10420000FF794846FDF7BCFC0020FDF7D3FAFDF727
:104210002DFC92A10020FDF7A3FB08AA94A10CA8F5
:10422000FEF7B0FAFDF722FCC0880CA900EB4000B5
:1042300080B2FDF795FBFDF719FCC18809EAC100C2
:104240008EA1FDF78DFBCBF818A0FCF77FFE904800
:10425000FCF752FE8E48CBF81C00FDF707FC01E08E
:1042600073E006E0C18809EAC1008AA1FDF778FB86
:104270006AE701208BF802005D4604A96FA0FFF7F2
:1042800023FE0498206005986060384601F012FA19
:1042900021461A9801F0ECFA5A491A9802F0DAFF0E
:1042A000C5F804A06DE0761C388968492844801B55
:1042B00004221439FBF7CFFF0028F4D1DBF81800F3
:1042C000B8EB06015D46A0EB0600CBF8180002D063
:1042D0004846FCF77FFFC5F804A04FF6FF7630464E
:1042E000FDF74EFCFDF7C2FBC08870A100EB80001B
:1042F00080B2FDF735FBAA6971A10CA8FEF742FA5E
:10430000FDF7B4FBC0880CA900EB400006EA4000B2
:10431000FDF726FBFDF7AAFBC0886CA106EAC000EA
:10432000FDF71EFB0220A87004A96EA0FFF7CCFDCC
:10433000049820600598606021461A9801F098FA68
:1043400030491A9802F086FF06E05FEA080003D0C1
:1043500001464846FCF73EFF384601F0ABF950E60F
:104360004FF47840FDF70CFCFDF780FBC08862A19C
:1043700000EBC00080B2FDF7F3FA21461A98FEF771
:10438000D5FB1DB00020BDE8F08F0000474554204C
:104390002F0000000C000020504F5354202F636862
:1043A00065636B6C6F67696E2E6367690000000060
:1043B000504F5354202F75706C6F61642E63676982
:1043C000000000004261642048545450207265711E
:1043D0007565737400000000474554202F726573A3
:1043E00065746D63752E6367690000002F726573D5
:1043F00065742E68746D6C002F696E6465782E6824
:10440000746D6C0011450008757365726E616D65A1
:104410003D00000073746D333200000075736572E7
:1044200000000000757365726E616D653D25732631
:1044300070617373776F72643D2573002F75706CB4
:104440006F61642E68746D6C00000000508300087A
:1044500066696C656E616D653D0000002020494114
:1044600050207573696E6720485454502020000016
:1044700046696C653A20257300000000537461742E
:10448000653A2045726173696E672E2E2E0000001A
:104490000000010853746174653A2050726F6772AE
:1044A000616D6D696E672E2E00000000546F7420E0
:1044B00062797465732052656365697665643A0054
:1044C0002564206279746573200000005374617460
:1044D000653A2050726F672046696E69736865643B
:1044E000200000002F75706C6F6164646F6E652E24
:1044F00068746D6C000000005265636569766564E0
:1045000020656D707479206672616D650000000031
:1045100010B50A46014640680028104602D001F056
:10452000A7F905E0FEF702FB08484078012801D012
:10453000002010BDBFF34F8F05480168054A01F404
:10454000E06111430160BFF34F8FFEE70C000020D4
:104550000CED00E00400FA050A46032100F08AB8D9
:104560002DE9FE4F446805468A46208800F076FF14
:10457000C0F303204FEA8009C9F1000188462846AC
:1045800001F0BAF8002870D1288904286DD3686832
:104590000078082869D101264FF0704000F05CFFD8
:1045A000216900EA01074FF0604000F055FF8742A3
:1045B00000D10026514604F1100000F0BCF800289C
:1045C00053D1002E51D0288908284ED3284600F018
:1045D0008EF8E8BB2221284601F08EF8D0B149467A
:1045E000284601F089F898BB29890022022000F0B2
:1045F00037FF060039D0294600F0E0FF40BB4146B6
:104600003046746801F078F810BB284601F052F883
:10461000354605E06FF02101284601F06DF8B8B984
:104620006868E1682269E2602161002606704680C0
:10463000208900F013FFC0B240F47F40FFF75EFC1A
:10464000208166814946284601F056F800B900E00D
:104650000BE00121CDE90061FF230022CDF808A085
:1046600004F10C01284600F0F5F92846BDE8FE4F9C
:1046700001F020B82DE9FC4791460E468046002205
:104680002421012000F0ECFE050024D06C68D8F84D
:1046900004701C22267084F801900026A680E68013
:1046A0006868D8F804100830FBF78AFD66806989CD
:1046B000204600F016F860800120CDE90060FF235D
:1046C00007F10C020021284600F0AAF92846BDE8AF
:1046D000FC4700F0EFBFBDE8FC870A460B21FFF75F
:1046E000C9BF10B500F09AFCC04380B210BD70B5D0
:1046F00000242646054613E06989686800F08EFCB0
:104700002044010C11FA80F4A87AC00707D0C6F142
:104710000100C6B2E0B2C4F3072141EA00242D68CB
:10472000002DE9D126B1E0B2C4F3072141EA00240B
:10473000E04380B270BD0068421C12D088B191F88D
:10474000312092070BD54A68824208D0896800EA76
:1047500001030A40934202D10143491C01D00020C9
:1047600070470120704700002DE9F74F84B0022206
:1047700005984FF014080021058D104600F070FEDA
:10478000070020D042487D813D8120F003047C60F9
:104790000498142241682046FBF712FDE08800F0DF
:1047A0005DFEC0F30C0900F40050029004980089EB
:1047B000143886B2143DE81705EB5070C0F3CF00F3
:1047C000CDE9000553E04FF0FF3007B0BDE8F08FB2
:1047D0000198864201DC012000E000205FEA000A27
:1047E0000298C9F30C0545EA000547D0304680B26F
:1047F00083460246434604F11401049800F026FF64
:1048000040441FFA80F82846FFF778FBE0800BF160
:10481000140080B2FFF772FB6080002060811421D9
:104820002046FFF75EFF6081BAF1000F05D006F168
:10483000140081B2384600F08FFF0022114602209A
:1048400000F00EFE05001ED0394600F0A5FE0598CA
:104850002946069A43699847284600F02BFFA6EBA5
:104860000B00009986B209EB01001FFA80F9002EB7
:10487000AED1384600F01EFF0020A6E7009845F4B0
:104880000055C000B3E7384600F014FF9BE7000076
:104890009B0100202DE9F05F446806468846208889
:1048A00000F0DCFD0421B1EB103F12D1208800F0B4
:1048B000D5FDC0F303204FF6FF7101EA800960883F
:1048C00000F0CCFD728901464A4502D33089884206
:1048D00003D2304600F0EEFE62E0304600F03CFFCE
:1048E000DFF834A10127454604F1100B284600F0FB
:1048F00043FD68B1281D0BD0686848B12169814229
:1049000004D029465846FFF716FF08B15DB117E0FD
:104910001FB10027DAF8005000E02D68454500D1AE
:104920002D68002DE2D1208900F098FDC0B2112839
:1049300006D104EB0900408800F090FD44282DD0FA
:10494000E06898B1414604F10C00FFF7F4FE00283E
:10495000BFD14FF0704000F07FFDE16800EA010731
:104960004FF0604000F078FD8742B2D0002DB0D00B
:1049700043F6FF70FFF7C2FAE188084205D03046DF
:1049800000F0CEF806000BD07468244D4146304646
:10499000C5E9018400F038FF28B138E04546E5E775
:1049A0000020BDE8F09F208900F058FDC0B201282A
:1049B00013D006280CD01128414605D004F1100070
:1049C000FFF7B9FE70B11FE0304602F07DFE1EE039
:1049D0004146304601F0B8FA19E041463046FFF74B
:1049E000BFFD14E04FF0704000F036FD216900EA91
:1049F00001074FF0604000F02FFD874204D00221F4
:104A000030467460FFF7A8FD304600F053FE0020EA
:104A10006860A860C4E700009000002068000020E3
:104A20002DE9FE438146DDE90A541F4616468846B5
:104A3000104600F03BFA50B10095CDE901403B46ED
:104A400032464146484600F005F8BDE8FE836FF067
:104A50000300FAE72DE9F05F1F46DDE90BA5DDF85D
:104A600028B05FEA02088946064641D01421304644
:104A700000F042FE18B16FF00100BDE8F09F7468CD
:104A8000208900F0EBFC67F31F20FFF737FA208145
:104A900000F0E4FC20F0FF0040EA0A00FFF72EFAE5
:104AA0002081D8F8000020611FFA8BF040F48A4082
:104AB000FFF724FA20803089FFF720FA174F608033
:104AC0004FF0000AA4F806A03888FFF717FAA08074
:104AD0003888401C3880B9F1000F02D0D9F80000A6
:104AE00010B9281D00D06868E060A4F80AA002E0B0
:104AF000706800F11008288D48B13189814206D9CB
:104B0000424629463046BDE8F05FFFF72DBE4246DB
:104B1000314628466B69BDE8F05F18476800002001
:104B20002DE9F14F4FF0000A00984568288800F001
:104B300095FCC0F3032005287ED1E88800F08EFCA8
:104B4000C0044FEA1049688800F088FC04462888B1
:104B500000F084FCC0F30320404204EB80001FFA05
:104B600080F8009800F021FD514E07463088384407
:104B70000A2809D93946284600F062F900285BD096
:104B8000308838440A2857D84FF0000B74680DE07D
:104B90006069E968884207D1A0692969884203D120
:104BA000A089A988884204D0A2462468002CEFD1AD
:104BB00006E02CB1E88800F051FCC00419D023E0D5
:104BC000052000F0A3FB04000AD13946284600F076
:104BD00037F9B84266DB052000F098FB040061D08D
:104BE0002021FBF706FB0320E077706820607460EB
:104BF00004E0E08900F032FCC00405D0142229460C
:104C000004F10800FBF7DCFA308838443080E8888B
:104C100000F024FC800406D4A07F40F00100A077BF
:104C200009EB0800A0832046009900F043F8002813
:104C300036D0A08B143000E034E0A08360681422EA
:104C400004F10801456828462F68FBF7B9FAA08BE4
:104C5000FFF754F96880A5F806B0A5F80AB014214A
:104C60002846FFF73EFD68816FF01309D4F80480F1
:104C700009E0494638467D6800F03EFD3946404629
:104C800000F076FC2F68002FF3D15146204600F04B
:104C90008DF8404600F089FC3188081A3080404683
:104CA000BDE8F88F009800F005FD0020F8E700004F
:104CB000600000202DE9F047D1F8049006460D462B
:104CC00000244FF00108B9F8020000F0C7FB0746C6
:104CD000B9F8000000F0C2FBC0F30320404207EB2C
:104CE0008007B9F8060000F0B9FBC004010C686841
:104CF00000220260CA19818097B2C78073681EE0E3
:104D00005A68B2F804C061450DD2036044B1B4F8EA
:104D100006C061453CD391888F4239D8256000E0B8
:104D2000756073B11AE033D0D388994230D324B17F
:104D3000E388634501D04FF0000813681446002B48
:104D4000DED154B12560E1888288914206D0B17FDE
:104D50004FF00008C90714D118E07560B17FC9078A
:104D600014D0B8F1000F0CD071684968898831B946
:104D7000016831B14968C0888A88904204D04FF0F8
:104D800000084046BDE8F0870846F1E70020F9E753
:104D9000284600F00AFC014603480288511A0180A7
:104DA000284600F087FCF1E760000020074B30B494
:104DB0000A465C680168844201D1596000E01160D4
:104DC000014630BC052000F069BA000060000020F8
:104DD0002DE9F041446806468846606800258188D0
:104DE00091B900687060142206F108016068FBF751
:104DF000E7F901212046FFF770FC204600F0D5FBC3
:104E00000546204600F056FC746809E060682746B5
:104E10000468384600F0C9FB0544384600F04AFCF7
:104E2000002CF3D141463046FFF7C0FF034801880C
:104E3000491B01802846BDE8F08100006000002089
:104E40002DE9F041184F88460646002400221146FD
:104E5000154678681AE04369D6F80CC0634509D155
:104E60008369D6F810C0634504D18389B6F804C0BD
:104E7000634507D06D1C22B1C37F92F81FC0634504
:104E800000D80246036803B1014618460028E2D163
:104E90001AB11046FFF79CFF0444444501DA012D86
:104EA000D4DC2046BDE8F0816000002070B50546E6
:104EB0000E4804680DE0204600F05EFA40B1A0689C
:104EC0002968626801400240914201D1204670BDCC
:104ED0002468002CEFD1064C206820B100F04CFA79
:104EE00008B1206870BD002070BD00009000002057
:104EF0009400002070B50446062004F82A0F002014
:104F00006070A070E070207160710220A0712A3C76
:104F100004F12B010020FBF719FD40F2DC50208545
:104F2000322084F8310005220C490D48FBF7CEFAF7
:104F300005220C490C48FBF78FFA094D00244FF469
:104F4000400600BF05EB44103146FBF7E3FA641C52
:104F5000052CF7DBBDE87040FBF7E8BDFC5F0020E7
:104F60009841002038420020F84000202DE9FE43FF
:104F700000266846FBF7B0FBDDE901710098884622
:104F800081B20322104600F06BFA05000AD00446F5
:104F9000B91962896068FBF713F9608924680644CF
:104FA000002CF5D10F4A10688168012901D90168E8
:104FB00000E0414600204FF0004302E00B60C9686A
:104FC000401C1468A4688442F8D8106800218160ED
:104FD00005484269120602D5802242618160284656
:104FE000BDE8FE83200100200090024070B50A4811
:104FF00000250C460068866807E0628970196168C0
:10500000FBF7DEF8608924680544002CF5D1A8B2CE
:10501000FBF702FD002070BD1801002030B4002213
:1050200007E003781C024378801C2343891E1A443E
:1050300089B20129F5D811B1007802EB0022100CD9
:1050400010FA82F0010C02D0010C11FA80F030BC91
:1050500080B2FEF753BF000010B500210220FDF71B
:1050600083FA0220FDF774FA164CB0B116480168B5
:10507000164A1140B1F1005F06D00220FDF72AFA6E
:105080000220FDF74BFAFEE74168E160A16000688D
:1050900080F308888847002010BDFCF7EDFCFBF783
:1050A00041F9FCF7AFFEFCF7D9F8FCF761FA00BF55
:1050B000FBF792F908B1FCF701FF2068FCF7C4FE8A
:1050C000F6E7000030000020000001080000FE2F7D
:1050D00000280FD008494A6890420BD38A68904252
:1050E00008D2083800220271CA68904200D2C86013
:1050F00000F060BB704700007C00002010B50A483B
:105100000A4A20F003004FF48053506000210380CE
:105110004180017100F58051012491600C710B8078
:105120004B801470D06010BD7B0700207C000020F5
:10513000F0B5002847D0C01C4FF6FC7100EA01040E
:105140004FF4805C0C2C01D20C2401E064453FD864
:10515000204AC4F58055D6685368F01A81B235E00C
:105160005818077987BB07887F1A083FA7422CD3B6
:10517000058804F1140E6D1A083D0127754514D3F6
:105180000C440834A5B25C194FF0000E84F804E01A
:10519000B0F800E0A4F800E0618005800771218884
:1051A000614503D09C1C0D5300E00771B04209D14A
:1051B000D2E902410D792DB1A14203D009881944E9
:1051C000D160F7E70830F0BDFFE7595A8D42C7DCE0
:1051D0000020F8E77C0000202DE9F04FC91C4FF6B5
:1051E000FC7211404FF480590C2901D20C2101E0CE
:1051F000494510D8284D6C68A0420ED3AA68904249
:105200000BD2A0F10802131B17889BB2FE1A083EAE
:10521000B6B2B14203D94FF00000BDE8F08FFCD028
:10522000AA461D4D07EB040C4FF0000BEF689CF8ED
:1052300004806D68B8F1000F05F1020516D001F188
:10524000140CB445E9D8194408318EB2A119B942F9
:1052500001D2CAF80C1081F804B014880C804B807D
:10526000168009884945D8D04E53D6E719440831ED
:10527000BCF8006089B2674502D16718CAF80C70A3
:105280000C4484F804B026806380118022884A454B
:10529000C3D05153C1E700007C000020002905D095
:1052A000034A52F820300B6042F82010704700008B
:1052B0008C170020F0B50020401C80B20928FBD3D9
:1052C0001048104B20F0030200200F4D0746273BEB
:1052D00005F1120443F82070002109E053F8206022
:1052E000166043F8202035F81060491C324489B21A
:1052F00034F810608E42F1D8401C80B20928E9D3FE
:10530000F0BD0000B317002078830008014609288B
:1053100001D300207047044A52F821000028F9D038
:10532000036842F8213070478C1700202DE9F041C6
:10533000044606A8E0C800206060A060E06084F831
:1053400031002062E5610B4D6062287884F83400FA
:10535000401C28702046276100F013F82046B04713
:1053600010B10020BDE8F0816868206020466C60C4
:10537000F8E700008C00002090F8310000F00100F8
:10538000704770B51D461646044600F01FF83146BA
:10539000204600F04FF829462046BDE8704000F056
:1053A00010B8000001498860704700008C000020A0
:1053B00090F83110CA0703D021F0010180F83110B4
:1053C000704701B10968C1607047000070B50546BB
:1053D0000C460868696888421ED0144800680AE0D4
:1053E00001686A68914205D10121C66800F056FA49
:1053F000304600E0C0680028F2D10D48006809E09E
:1054000007D0016829B16A68914202D144B121688C
:105410000160C0680028F3D12CB12068686070BDBD
:105420004FF00001F4E74FF00000F7E7B000002074
:10543000AC00002001B109688160704790F831101C
:10544000CA0708D141F0010180F83110890602D560
:10545000011DFEF7D5BB704700BA704740BA7047D0
:105460002DE9F05F16460D46002730B1012805D022
:10547000022804D003284DD102E0142714370E3738
:105480004FF0010A4FF00008F6B3012E5ED0022E55
:105490005CD0032E3ED10820FFF738FF04003AD03D
:1054A000E0191330267320F00300C4E90080FF1CCC
:1054B00027F00300C0F5BE6041462581A84200DD0B
:1054C000284660815746A4F80EA0A1462D1A4FF435
:1054D000BE6B884616E00820FFF718FFB8B10673C8
:1054E00080F80D80C0F80080A9B2C9F800000181E1
:1054F000594500D35946418100F110024260C781ED
:105500006D1A8146002D00E007E0E4DC2AE0204629
:1055100000F0D0F80020BDE8F09F07F1130020F064
:105520000301E81C20F00300084480B2FFF700FEEE
:105530000400F0D0E019133020F0030060602581F2
:105540006581C4F8008084F80C800BE00720FFF729
:10555000DDFE0400DFD0C4F8048025816581C4F835
:1055600000802673A4F80EA084F80D802046D2E7B0
:1055700010B500280FD000290DD004E003890C8954
:105580002344038110460268002AF7D102890B895F
:105590001A440281016010BD10B50C46FFF7E8FF08
:1055A0002046BDE8104000F0FEB8002102E0491C92
:1055B0000068C9B20028FAD1084670472DE9F047C3
:1055C0004FF000070C4605003E4604D01CB1288968
:1055D0002189884203D26FF00900BDE8F0876FF09F
:1055E000080968896189C01B891B884201DB88B270
:1055F00000E080B28046606842468119686838449D
:10560000FAF7DEFD07EB080087B206EB080086B26A
:105610006889B84201D12D6800276089B04201D85D
:10562000246800262CB160892189884201D1206834
:1056300030B93DB168892989884203D1286808B109
:105640004846CAE7002CCCD10020C6E72DE9F04738
:10565000164689464FF00008002806D0B9F1000F21
:1056600002D00027044620E00020BDE8F0872BB1DF
:105670006089984202D8181A83B215E06089C01A6E
:1056800085B2B54200D9354660682A46C11809EB93
:105690000700FAF795FD08EB05001FFA80F8781966
:1056A00087B2701B86B2002324680EB1002CDED1B5
:1056B0004046DAE770B5002815D00024C189491E9C
:1056C0000904090CC1810DD1017B056803290BD0A8
:1056D00001290CD002290AD0FFF7FAFC641CE4B2BD
:1056E0002800EBD1204670BD0146082001E00146AC
:1056F0000720FFF7D3FDF1E710B541B138B100291C
:1057000007DA4A4293B242899A4223D302E0002048
:1057100010BD8BB2027B446832B1032A04D0022A46
:105720000AD0012A08D015E0621A00F11003426085
:105730009A4208D244600DE000290BDA42899A426D
:1057400008D3621A426042890A44428102891144A4
:105750000181DCE7012010BD70B502898A4221D9A0
:105760008A1A0D46044605E0281A85B2208910449D
:10577000208124686089A842F6D3207B50B96089D3
:10578000A84207D0A088001B284481B22046FFF71A
:1057900023FD044665812581206808B1FFF78AFF53
:1057A0000020206070BD002802D0C189491CC18141
:1057B0007047000030B5134903884A681344941CAD
:1057C00098420DD01D795DB98D68AB4208D0CD6887
:1057D0009D4200D1C8601D8805801B88851A1D5315
:1057E0004388134483420BD01D79002D08D1CD6826
:1057F000854200D1CB60018819800088991A015335
:1058000030BD00007C0000202DE9F047466882464C
:1058100000273089FFF722FEDFF8509000F0FF08E4
:105820000025D9F800401CE0217C414516D1D4F870
:1058300014C0BCF1000F11D006F10C0352462146F2
:10584000A069E04750B14FF0000A012735B1E06888
:10585000E860D9F80010E160C9F800402546E46826
:105860000FB9002CE0D13846BDE8F0879800002041
:1058700070B50C46B0F86E5049688D4200D38DB2B9
:1058800000232A46216801F05FFE002805D1206828
:10589000284420606068401B606070BD2DE9FF5F98
:1058A0000446007C8B460A2832D0D4F858A0D4F89D
:1058B0002490BCB320680290201D00D06068039043
:1058C000278B268C21461948D4F81480D4F89050A0
:1058D00000F08CFFA06F08B101F079FC606F08B197
:1058E00001F075FC21460220FFF7D8FC1DB16FF0D6
:1058F00004014046A847BBF1000F07D0CDE9007670
:1059000003AB02AA4946504601F003FCBDE8FF9FE5
:1059100006482146001D00F069FF21460220FFF7DE
:10592000BDFCF3E7FFE700200290C7E7B0000020CE
:10593000C16170476FF00400704700002DE9F0412D
:1059400006460220FFF7E2FC364D040038D1002164
:105950000A46AB68A86906E0046B1C1B8C4201D3A5
:1059600021460246C0680028F6D11AB1012110462E
:10597000FFF794FF0220FFF7C9FC040020D17F232A
:1059800000210A46D5F808C068690DE0447CB4429D
:1059900009D89C4207D8076BACEB07078F4202D3AC
:1059A000394602462346C0680028EFD11AB10121CA
:1059B0001046FFF773FF0220FFF7A8FC04002ED06B
:1059C000A021FAF716FC4020607441F2D060A4F8E0
:1059D0006E0018340023A4F858302082608204F846
:1059E0000E3CFF2004F80D0C4FF4067020840620B6
:1059F0002086A385E085C01FE0830120608700F03A
:105A000027FDE064206460632065A868A0612377B7
:105A10000548E0660548E06784F88530183C204674
:105A2000BDE8F0819C000020E36F000800DD6D0000
:105A3000416170472DE9F0410546007C0C4618B1E4
:105A40006FF00C00BDE8F08112B900F0D1FC024605
:105A500026486FF00A0300680BE0018B914207D1E2
:105A6000A0B3016891B38CB326687EB3B1422DD048
:105A7000C0680028F1D11D49103948690BE0068B38
:105A8000964207D110B3066806B3FCB12768EFB1A0
:105A9000BE421BD0C0680028F1D1C8680BE0068B5D
:105AA000964207D190B1066886B17CB127686FB184
:105AB000BE420BD0C0680028F1D1886909E0068B8E
:105AC000964205D106682768BE4201D11846B9E75B
:105AD000C0680028F3D114B1206800B128602A837F
