:020000040800F2
:10000000307F00209D010008431300084D0F0008B9
:10001000411300084902000885160008000000008E
:1000200000000000000000000000000009150008AA
:100030004B02000800000000BD1300081516000860
:10004000B7010008B7010008B7010008B7010008B0
:10005000B7010008B7010008B7010008B7010008A0
:10006000B7010008B7010008B7010008B701000890
:10007000B7010008B7010008B7010008B701000880
:10008000B7010008B7010008B7010008B701000870
:10009000B7010008B7010008B7010008B701000860
:1000A000B7010008B7010008B7010008B701000850
:1000B000B7010008B7010008B7010008B701000840
:1000C000B7010008B7010008B7010008B701000830
:1000D000B7010008B7010008B7010008B701000820
:1000E000510B0008B7010008B7010008B70100086C
:1000F000B7010008B7010008B7010008B701000800
:10010000B7010008B7010008B7010008B7010008EF
:10011000B7010008B7010008B7010008B7010008DF
:10012000B7010008B7010008B7010008B7010008CF
:10013000B7010008B7010008B7010008B7010008BF
:10014000B7010008B7010008B7010008B7010008AF
:10015000B7010008B7010008B7010008B70100089F
:10016000B7010008B7010008B7010008B70100088F
:10017000B7010008B7010008B7010008B70100087F
:10018000B7010008B7010008DFF80CD000F04AF80A
:100190000048004785290008307F00200648804736
:1001A00006480047FEE7FEE7FEE7FEE7FEE7FEE75C
:1001B000FEE7FEE7FEE7FEE71916000889010008E2
:1001C00040EA01039B0703D009E008C9121F08C0D9
:1001D000042AFAD203E011F8013B00F8013B521E59
:1001E000F9D27047D2B201E000F8012B491EFBD2D0
:1001F00070470022F6E710B513460A460446194632
:10020000FFF7F0FF204610BD30B50446002003463E
:1002100000E05B1C934203D2E05CCD5C401BF8D055
:1002200030BD0000064C074D06E0E06840F00103D9
:1002300094E8070098471034AC42F6D3FFF7A8FFC4
:10024000E446000804470008FEE770471FB500F0C9
:1002500019F900F019FB1F48406800B3012000F0B5
:100260001FFD00F0D5FC042001F0C8F9684601F03C
:10027000CBF801986421B0FBF1F0B0F1807F0DD292
:1002800020F07F414FF0E020491E4161124AF021E9
:1002900082F8141D00218161072101611FBD4FF407
:1002A000784000F0F7FF00F0E3FFC0880BA100EBFF
:1002B000800080B200F082FF00F0DAFFC0884FF6C5
:1002C000FF7100EB400001EA400009A100F076FF59
:1002D000FEE70000200000200FE000E02020204585
:1002E000746865726E657420496E69742020200000
:1002F0002020202020206661696C65642020202059
:1003000020200000174A506803681146002B8968B6
:1003100008DB0368DB0505D548608868401C8860F9
:10032000012070470368002B0CDB03689B0509D58F
:100330000368DB0506D4086000204860012088605F
:1003400050680BE00368002B0ADB03689B0507D4A9
:100350000368DB0504D48B685B1C8B60C06850604D
:10036000002070477400002005490028886902D0E9
:1003700040F0020001E020F00200886170470000B8
:1003800000900240F0B5124F00234FF0004C44F2B1
:10039000F45E561E786013E000EB4314C4F800C00E
:1003A000C3EBC31505EB450501EB8505C4E901E584
:1003B000B34203D204F12005E56000E0E0605B1C7D
:1003C0009342E9D30349C8600348B860F0BD000018
:1003D0007400002000900240247B00200549002882
:1003E000886902D040F4005001E020F40050886198
:1003F0007047000000900240F0B50F4C00234FF40E
:100400008017561E206011E000EB43142760C3EBF9
:10041000C31505EB450501EB8505A560B34203D285
:1004200004F12005E56000E0E0605B1C9342EBD343
:1004300002490861F0BD00007400002000900240F5
:1004400002680A430260704710B501214C0620463D
:1004500000F0C2FF2046BDE81040002100F0BCBF04
:1004600001B581B001980090002801D0401EFAE744
:100470000CBD00000248816941F480118161704720
:10048000009002401CB5012140F2E71000F098FFF7
:100490000121880300F0ACFF4FF48070009003202E
:1004A0008DF8050002208DF8040000208DF806006C
:1004B000474C8DF807006946204600F0F0FC01200B
:1004C00001F024F8862100916946204600F0E7FCFF
:1004D0000B220121204600F01EFD0B2202212046A6
:1004E00000F019FD0B220721204600F014FD4FF407
:1004F0009070384C00906946204600F0D0FC0B22EA
:100500000521204600F007FD0B220821204600F0BF
:1005100002FD3E20304C00906946204600F0BFFCB2
:100520000B220121204600F0F6FC0B22022120467E
:1005300000F0F1FC0B220321204600F0ECFC0B2222
:100540000421204600F0E7FC0B220521204600F0A4
:10055000E2FC4FF4D040214C00906946204600F068
:100560009EFC0B221146204600F0D5FC0B220D21EB
:10057000204600F0D0FC0B220E21204600F0CBFCE0
:10058000CC20174C00906946204600F088FC0B22D6
:100590000221204600F0BFFC0B220321204600F080
:1005A000BAFC0B220621204600F0B5FC0B220721E5
:1005B000204600F0B0FC20150A4C00906946204609
:1005C00000F06DFC0B220A21204600F0A4FC1CBDAB
:1005D00000000240000402400008024000180240EF
:1005E000001C024000200240034900200968C9079E
:1005F00000D00120704700000090024030B50A4C46
:1006000061680A68C2F30D43A26895681B1F012D3B
:1006100002D91268926800E08A68CD68656003605C
:10062000C0E9012130BD0000740000202DE9F04137
:1006300086B000277F4E04460097019730698846B0
:1006400020F01C0502A800F0DFFE7B4903987B4ADE
:100650000144914202D245F0080516E07849794AF2
:100660000144914202D245F00C050EE07649774AEA
:100670000144914209D3764908447649884202D21E
:1006800045F0040501E045F0100535614FF40042E6
:100690000021404600F032FA00282DD06E48FFF7C6
:1006A000DFFE2068B0B36D4D01980121401C019020
:1006B000404600F099F9400702D40198A842F3D3CC
:1006C0000198A84217D04FF480520021404601976C
:1006D00000F014FA00280FD001980121401C01906D
:1006E000404600F081F9800602D40198A842F3D375
:1006F0000198A84203D1002006B0BDE8F081102186
:100700004046019700F070F9410704D54FF40061AD
:10071000216201E008E02762800701D5676113E0EC
:100720004FF4804060610FE0206A6169C00840EAD0
:10073000510082B20021404600F0E0F90028DBD0F1
:100740006FF07F40FFF78CFE316845480140D4E9E7
:1007500001021043E26854F8103F1A4310436268E4
:100760001043A2681043E268104322691043626993
:100770001043A2691043E2691043226A1043626A7F
:10078000104308433060F4E90A010843D4E9021237
:10079000114308432169084361690843A16908437B
:1007A000E16908437060206AB060606AF060B16916
:1007B0004FF641700140D4E90B021043238D626B68
:1007C00042EA03421043A26B1043E26B104308431A
:1007D000B061D4E910010843F061224882692249DE
:1007E0000A40D4E912131943D4E914352B431943B1
:1007F000A36D1943E36D1943236E1943636E1943C7
:10080000A36E194311438161D4E91B121143626F36
:1008100054F8783F1A431143626841EA8201A268A2
:10082000114341F400010160016841F08001016061
:10083000012061E70080024000D3CEFEC0E1E40069
:1008400040F1E9FD40787D0100796CFC005A6202BC
:10085000001F0AFA80F0FA02FFFF0F00FFFF0400FA
:100860000F8120FF00900240233FDEF8054B8A886D
:10087000184402640A78D1F8011042EA0121416467
:10088000704700000080024000B5AFB001214FF07A
:10089000606000F095FDFFF7D7FD00F0D1F8FFF79D
:1008A000A3FE0128FBD0684600F0E3F80120009089
:1008B00000204FF40071CDE90A100904079011904F
:1008C000CDE920010E90149013900A1115902590F7
:1008D000269023920420CDE9280180032A908001EC
:1008E0002B9040122C9040002E9001216846FFF77B
:1008F0009DFE024948602FB000BD0000200000208E
:1009000005490028086802D040F0040001E020F00A
:10091000040008607047000000800240054900287C
:10092000086802D040F0080001E020F008000860EC
:100930007047000000800240F0B5294C0022216879
:100940000B68002B01DA0020F0BD40F2F455A842FC
:1009500015D9B0FBF5F6B0FBF5F305FB160606B1AD
:100960005B1C012B0BD0C3F10107C7EBC71707EBCB
:10097000470700EB87005E1EC0F30C0723E00A6800
:1009800042F040520A60C0F30C004860086840F032
:1009900000400860C868206018E032B92068D0F8CC
:1009A00000C04CF0805CC0F800C04D60B24204D181
:1009B000086840F0005008604F60086840F0004050
:1009C0000860C968521C9A42E7D321600548416912
:1009D000490703D504214161002141600120F0BD98
:1009E000740000200090024018B500220092124AC4
:1009F00013694FF6FF7403F01C0304EAC020184388
:100A00004FF4F86303EA8111014321F0020040F042
:100A10000100106109490098401C00901069C0074E
:100A200002D000988842F6D30098884201D1002075
:100A300018BD506980B218BD00800240FFFF04005D
:100A40000248016841F001010160704700900240D6
:100A500000B50120FFF762FFFFF70CFD0120FFF753
:100A60004FFF0120FFF7BAFC01205DF804EBFFF710
:100A70007BBC012101600021416081604FF4804214
:100A8000C160C0E90412D2108161C0E9071241625D
:100A90008162C1620163416340228163C0E90F1238
:100AA0002022C0E91121C164016541658165802270
:100AB000C165C0E918128166C16601674167D20449
:100AC0008167C0E91F125210C0E921211311C0E94A
:100AD0002331C0F89410C0F89810C0F89C10C0E9F9
:100AE00028125212C0F8A8209201C0F8AC2052126D
:100AF000C0E92C21C0F8B8107047000038B50023B9
:100B00000093114B1C694FF6FF7504F01C0405EAB5
:100B1000C02020434FF4F86404EA8111014341F0FE
:100B200003005A61186109490098401C0090186937
:100B3000C00702D000988842F6D30098884201D1BD
:100B4000002038BD012038BD00800240FFFF0400B6
:100B500010B54FF48044204600F012F8002807D06A
:100B6000012000F08FF82046BDE8104000F002B8E8
:100B700010BD00000149086070470000143C0140AE
:100B8000064A014600201268044B0A4014331B68D1
:100B90000B4202D0002A00D001207047003C0140E7
:100BA00030B51A4A8379016853B313688B431360D5
:100BB000111D0B680468A3430B60017911440B6895
:100BC000046823430B60114B083319680468A14380
:100BD00019601C1D21680568A9432160417910290D
:100BE00005D011440A68006802430A6030BD1968E4
:100BF000026811431960216800680143216030BD1B
:100C00000079104402688A43026030BD003C014014
:100C100030B585B00121022000F0D2FB01218D0307
:100C2000284600F0E5FB00248DF810408DF81340B5
:100C300003A91348039500F032F90E21012000F0BA
:100C40006BFC8DF804400C2000958DF80500012503
:100C50008DF806506846FFF7A3FF4FF4A06000F040
:100C6000A3FB28208DF808008DF809408DF80A4074
:100C70008DF80B5002A800F065FB05B030BD0000F8
:100C80000004024010B51221FFF7AEFE800403D528
:100C900002480178C943017010BD00002000002007
:100CA00010B504461121FFF79FFE40F00302112109
:100CB0002046FFF723FF00280CD012212046FFF723
:100CC00093FE40F0200212212046FFF717FF002874
:100CD00000D0012010BD000070B50646002529B1E6
:100CE000012927D0022928D04FF4407500F0C8F818
:100CF00008281ED1124C206820F440702060206823
:100D000028432060206820F0F8002060206846F02A
:100D1000020108432060206840F48030206000F029
:100D2000AFF8216821F002012160216821F0F8016B
:100D3000216070BD4FF48075D8E74FF40075D5E79A
:100D4000103C02400B4908200A68D20301D501205B
:100D500070470A68D20601D5052070470A6812F06C
:100D6000EF0F01D00620704709688907FBD50720DF
:100D7000704700000C3C0240134910B5884221D84E
:100D800002212020FFF7A8FF02212820FFF7A4FF5F
:100D900002213020FFF7A0FF02213820FFF79CFF3F
:100DA00002214020FFF798FF02214820FFF794FF1F
:100DB00002215020FFF790FF02215820FFF78CFFFF
:100DC000002010BD012010BD00000E0800F046B844
:100DD0002DE9F04117460E4605460024DFF83C8019
:100DE00015E056F82410286800F01AF8082802D0F8
:100DF0000120BDE8F081286856F824100068884278
:100E000001D00220F5E72868001D2860641CBC4260
:100E100002D229684145E4D90020EAE7FBFF0F0828
:100E200070B50D46064600F02BF8082813D10A4C81
:100E3000206820F440702060206840F4007020603A
:100E4000206840F001002060356000F019F821684A
:100E500021F00101216070BD103C0240054800688E
:100E6000002805DA034804490C3801600349016091
:100E700070470000103C024023016745AB89EFCD6D
:100E800008B508208DF80000FFF75CFF8DF8000022
:100E90009DF800000128F7D09DF8000008BDF0B5CE
:100EA000002201274FF0030C0B6807FA02F52B40D4
:100EB000AB422CD1066853000CFA03F4A64306603B
:100EC0000E79D0F800E09E4046EA0E0606600E79E4
:100ED000012E01D0022E12D18668A64386604E797B
:100EE000D0F808E09E4046EA0E0686604668AE43AB
:100EF000466045688E799640B6B235434560C56810
:100F0000A543C560CC799C40C3681C43C460521C97
:100F1000102AC9D3F0BD4B07DB0E9A40C90810B5A3
:100F200000EB8100016A0F249C40A1430162016A29
:100F30001143016210BD0246002012690A4200D02E
:100F4000012070474183704701837047FEE700002E
:100F500010B50446084601F071FD204602F036F94E
:100F6000204602F0EDF90548002203498068BDE8FB
:100F7000104002F0E2B90000FD0F00080000002060
:100F8000408801F0EEBE00002DE9F047814616468C
:100F900088464FF40A7001F081FD040022D002203F
:100FA0002060D8F80000C4F80C020025C4E984656C
:100FB00022460F494846C4F8185202F0BEF90D4FB8
:100FC0003D60FFF703FF0C4D2846FFF7D5FE7D601F
:100FD000324641464846D4F8143200F035F8002035
:100FE000BDE8F08701464846FFF7B2FFF7E700008B
:100FF000D110000800000020000001082DE9F04198
:101000001E461546069F02F08BF9040017D00022F9
:101010000C4902F0ADF8002811D168684078022828
:1010200003D0204602F08CF904E03A4631462046CF
:10103000FFF7AAFF2846BDE8F04101F0BCBFBDE8BC
:10104000F0810000EC340008F8B50E460746002198
:1010500004208DF800108DF80100154698B200F0BC
:1010600016FFADF8020003220421002001F07BFEF0
:1010700004000ED060680099ABB201603246214690
:10108000384602F073F90546204601F094FF2846E1
:10109000F8BD4FF0FF30F8BD10B502F041F9094C32
:1010A0000028A0600CD04522074902F061F8002812
:1010B00006D1A068BDE810400022044902F03DB905
:1010C00010BD000000000020EC340008FD0F0008F7
:1010D0002DE9F041ADF5007D0F4604465089118998
:1010E000DDF818821E461546884250D1042831D9B1
:1010F0006868FFF745FFD4F81412491C884229D1CB
:1011000068890423001F82B26946284601F01FFF48
:10111000214968890A68121F02440A60011FCA1720
:1011200001EB9271C1F38F02800701D0521C92B281
:1011300019486946001DFFF74BFED4F81402401C05
:10114000C4F814026989D4F818020844001FC4F8CE
:1011500018020AE06868FFF713FF0146D4F814028A
:10116000401C814201D1C4F814024246314638463F
:10117000D4F81432FFF768FF6889B0F5017F03D215
:1011800021463846FFF7E4FE284601F014FF0DF52E
:10119000007DBDE8F081000000000020203AD3B2BD
:1011A000054A10B452681468D2885A4304EB4202CC
:1011B00010BC00F01FB8000080000020F0B50D4604
:1011C000074640F23F140A4E08E021463846FFF732
:1011D000E5FF70688088201A84B26D1C2A78002A86
:1011E00005D07168601C80B289888842EDD2F0BD5C
:1011F000800000202DE9F0439046894606460024F1
:1012000000F03CF84FF0D045184F26E0222028800F
:10121000002017E00C22B1FBF2F2D20080239340B1
:1012200038F814200341134201D10C2905D90123B8
:1012300083401A4203D10C2901D9798800E039880A
:101240006980401CBCF804108142E3D8761CB6B219
:101250004946304600F012F8641CD7F804C0BCF8C8
:101260000600A042D2D8BDE8F08300008000002034
:101270000148406870470000800000200B4600B520
:101280000146202000F00EF8194621205DF804EBFD
:1012900000F008B801B5BDF800000149088008BD9C
:1012A000800000204FF0D042108051807047000035
:1012B00000B587B001F0D8FB01F0B2FC104800F097
:1012C000E4FD03906FF0FF0000F0DFFD04900C4898
:1012D000093800F0DAFD05900A4A0B4900208DE834
:1012E000070005AB04AA03A9084801F0D5FC07488C
:1012F00001F00CFD054801F024FD07B000BD000021
:101300000A00A8C08D1C0008E11C00089000002005
:1013100011B4074800990268891A41F28832914253
:1013200004D30099016018BC00F086BC18BC70475B
:101330001C000020014800F0E7BC000090000020E5
:10134000FEE7704730B50F23C27801780125FAB166
:10135000144A126801F1E02102F4E062C2F5E06291
:10136000C2F30722C2F10404D3404278A240847839
:101370001C401443220181F80024007800F01F0172
:101380008D404009800000F1E020C0F8005130BDE0
:1013900001F01F0085404809800000F1E020C0F8FE
:1013A000805130BD0CED00E002490843024908605D
:1013B000704700000000FA050CED00E070470000E7
:1013C000044A0029116801D0014300E08143116003
:1013D0007047000030380240044A0029116801D0EB
:1013E000014300E081431160704700001038024063
:1013F000044A0029116801D0014300E081431160D3
:10140000704700004438024070B5204B1968204CEA
:1014100011F00C0104D01F4E042903D0082903D079
:1014200004601BE0066019E0184A121F1168C1F33E
:101430008055116801F03F0115B1B6FBF1F101E0F3
:10144000B4FBF1F114681268C4F388146143C2F369
:101450000142521C5200B1FBF2F1016019680F22E7
:1014600002EA11110C4A545C0168E14041601C68B9
:10147000072505EA9424145D21FA04F484601B68AE
:1014800005EA5333D25CD140C16070BD08380240D8
:101490000024F40080C3C901610000201CB50121B3
:1014A0004020FFF78DFF01218803FFF7A1FF602097
:1014B000009000208DF8040003208DF80500012025
:1014C0008DF8070069460248FFF7E9FC1CBD0000E3
:1014D000001802401CB501214020FFF771FF0120D8
:1014E0008DF8040000218DF806108DF80700022009
:1014F0008DF805000620009069460248FFF7CFFCF2
:101500001CBD000000180240704700000149C1F8EE
:10151000DC0070470000274210B58A0721F0030461
:101520000849120F21440F23D1F8084893409C43E7
:10153000C1F80848D1F8083890400343C1F808388A
:1015400010BD0000003001400CB500222749009278
:101550000192086840F4803008604FF4A063086886
:1015600000F4003001900098401C0090019810B9E0
:1015700000989842F3D10868800334D50120019087
:101580001A484030026842F08052026018480268EF
:1015900042F4804202601548083002680260026826
:1015A00042F400420260026842F4A0520260031F4B
:1015B000104A1A600A6842F080720A600A68920152
:1015C000FCD50D4940F205620A60016821F0030173
:1015D0000160016841F0020101600168C1F381010D
:1015E0000229FAD10CBD01920CBD00000038024066
:1015F000007000401E544007003C02404FF0E021C4
:101600000428086903D020F004000861704740F006
:101610000400FAE700F02EB8124810B5016841F452
:10162000700101601048016841F0010101600E4A3B
:1016300000210832116002680C4B1A400260031D41
:101640000B4A1A60026822F48022026006480C30BD
:101650000160FFF779FF03494FF0006080390860AF
:1016600010BD000088ED00E000380240FFFFF6FEEC
:1016700010300024024801680A3101607047000000
:101680000C000020FEE702E008C8121F08C1002A73
:10169000FAD170477047002001E001C1121F002AF3
:1016A000FBD170471FB5016A064B0122CDE900133B
:1016B000CDE9021200F127031946034A00F032FA7D
:1016C00004B010BD0E350008083500087CB504468E
:1016D000006A002835D00079002832D094F827001D
:1016E0008DF8000094F828008DF8010094F8290086
:1016F0008DF8020094F82A008DF8030094F82B006E
:101700008DF8040094F82C008DF80500206AD1F8BB
:101710000E208D6903790831012B13D0022B01D1E2
:1017200043797BB1006882420BD106226846FEF7FE
:101730006BFD002805D0206A007A78B1204600F0C1
:1017400015F87CBD00688242F8D08542F9D10622A6
:101750006846FEF759FD0028F0D17CBD2046FFF712
:10176000A1FF216A642008727CBD00002DE9F041D0
:1017700005460027046A01F0B5FA10B1284601F0C9
:10178000CBFA00266E60AE60EE603CB32671E68058
:10179000667126602672B5F82B00174E304400F0B3
:1017A00074FB01F0DCFA296A497A0844134980B2D3
:1017B0000843B04201D200F57E401149884201D968
:1017C000A0F57E4000F061FB2060607A401C6072F2
:1017D000284600F017F83846BDE8F0810A2001F0ED
:1017E0005DF9040004D02660666026812C62D2E791
:1017F0004FF0FF30F0E700000001FEA90000FEA955
:10180000FFFEFEA910B550F8201F01220A71002228
:101810004A71C27A037B447A42EA0362837A00689F
:101820001B0443EA04231A4300B1407A10440A22FD
:10183000B0FBF2F302FB1300C880487A0A2802D9F1
:101840004FF41670C88010BD2DE9F84391468846C4
:1018500006006FD0B9F80A002A2868D3D9F80450D6
:10186000012005F10E0400F012FB218888425ED1B0
:1018700040F2046000F00BFBA188884257D14FF47E
:10188000006000F004FB6188884250D140F60600F9
:1018900000F0FDFAA989884249D121463046FFF778
:1018A00015FFD4F80E000090A169706818B181424C
:1018B00003D1012702E0002703E000270FB1012335
:1018C00000E0002304F108026946304601F0BAFD49
:1018D000E08800F0DCFA012829D147B3022000F0AB
:1018E000D6FAE080D4F80E00A0617068C4F80E004B
:1018F000306A062318B1007908B10F4901E004F1FC
:1019000008015B1E13F0FF0304EB0300027A8274EC
:10191000CA5CEA5418F80320027205EB030218F8B7
:1019200003009071EDD1B269494630469047484670
:1019300001F041FBBDE8F8830835000830B4002809
:1019400010D04A6883684568D2F81A401D401C4090
:1019500002F10E01AC4205D100230C3130BC921DC6
:1019600001F070BD30BC70472DE9FC410E460546C4
:1019700014460E21304601F040FB18B16FF0010013
:10198000BDE8FC812946204600F072FB08B1234BDC
:1019900028E04FF0704001F0E2F9216800EA010709
:1019A0004FF0604001F0DBF9874222D101208DF831
:1019B000000000208DF801005E208DF802002068F4
:1019C00001F0CDF9C0F306408DF80300206801F066
:1019D000C6F9000A8DF80400206801F0C0F98DF8FE
:1019E00005006B4605F127023146284600F008F94C
:1019F000C6E7A86821686A6801400240914203D0A6
:101A0000E86838B105F10C0432462146284600F05A
:101A100007F8B5E76FF00300B2E7000008350008EB
:101A20002DE9F05F0E46824600F1270B17464FF076
:101A3000FF385146304600F01BFB08BB4FF07040AA
:101A400001F08DF9316800EA01044FF0604001F0C7
:101A500086F9844214D09EB1306888B101213046A5
:101A600000F066F900280DDBDFF8B49000EB80058C
:101A700009EB8504A07B38B1012807D037B10BE012
:101A80006FF00900BDE8F09F0120A0733146504679
:101A900000F0A4F880462FB3A07B4E46022802D067
:101AA000012808D03AE004F108035A463946504666
:101AB00000F0A6F831E000213C46207B012803D14C
:101AC0002468002CF9D171B121890022032001F092
:101AD0004AF9040022D0394601F0F1F940B120461C
:101AE00001F069FA1AE03C46384601F0DDFAACB183
:101AF000032001F0C1F80100F1D00020C1E9000489
:101B000056F8250008B905E010460268002AFBD106
:101B1000016001E046F82510002080464046B1E70C
:101B2000943D00202DE9F05F93468946074698468C
:101B300000222A210320DDF82CA001F014F9060070
:101B40000DD075680D9805F10E0400F0A0F9E08045
:101B5000396A062039B1097929B11F4A04E04FF0EA
:101B6000FF30BDE8F09F5A46401E10F0FF0004EB26
:101B7000000118F800300B721AF800308B74115CF9
:101B8000295405EB000319F800109971ECD10A985B
:101B90000068C4F80E000C980068A061012000F0F5
:101BA00076F920804FF4006000F071F9608040F217
:101BB000046000F06CF9A08040F6060000F067F9C0
:101BC000A881BA693146384690470446304601F04C
:101BD000F2F92046C5E70000083500081FB50123CB
:101BE000064C021DCDE90213CDE9002400F12703C4
:101BF0001946A21FFFF796FF04B010BD0E3500086E
:101C00002DE9F0414D680E4607460624641E14F087
:101C1000FF0405EB0401185D2855105D8871F5D1AE
:101C20004FF4006000F033F9A88131463846BA69B4
:101C3000BDE8F041104700002DE9F0410024124FAB
:101C4000A04604EB840507EB8506F07B401CC0B280
:101C5000F073B17B022902D0012903D00DE0F028F6
:101C600002D20AE0022808D357F8250018B100F084
:101C7000FDF847F8258086F80E80641CE4B20A2C33
:101C8000DFD3BDE8F0810000943D002070B504462C
:101C900040680D46808900F0FAF8B0F5006F04D076
:101CA000A0F5006006380AD112E021462846FFF769
:101CB00045FE6FF00D01204601F09FF918B1204656
:101CC00001F079F90AE02946204600F081FA05E0A2
:101CD000224605F127012846FFF7B6FD002070BD1A
:101CE00010B5732180F82E10742180F82F1004494C
:101CF00041610449816100F08FFD002010BD0000AA
:101D0000691900081929000870B5054600F0C4FDDE
:101D1000040009D02A6929469047050002D02046D0
:101D200001F049F9284670BD4FF0FF3070BD00004A
:101D30002DE9F35F4FF00A0A4FF00001DFF824B1FC
:101D40000400D14652468C460F46D0460E4611D06E
:101D50004548057805EB85030BEB8300837B022B5D
:101D600008D123684068834204D168B2BDE8FC9F73
:101D70000A2A07D1DFF8ECE001EB81030EEB8300C8
:101D8000807B48B101EB810B0EEB8B00837B012B39
:101D900004D0022B18D026E04AB224E01CB12368FC
:101DA0004568AB4215D05EF82B3033B1C57BB542E8
:101DB00019D34FFA81F82E4615E0C37B634512D341
:101DC0004FFA81FA9C460EE03CB123684568AB426D
:101DD00003D12548017048B2C8E7C07BB84202D39E
:101DE0004FFA81F90746491CC9B20A29C0D34FF0FE
:101DF000FF310A2A02D10198C00731D0019880072B
:101E00002ED44FF0000B0A2A01DAD5B219E0B9F14D
:101E10000A0F02DA09F0FF0513E0BAF10A0F02DA3D
:101E20000AF0FF050DE0B8F10A0F19DA08F0FF0516
:101E30000C4F05EB850657F8260000F017F847F819
:101E400026B0084805EB850200EB8200594680F871
:101E50000EB00CB122684260C1730348057084E77C
:101E6000084683E7943D00206000002070B50446DA
:101E700008E02546D5E9004001F09DF829460320F9
:101E800000F0C2FE002CF4D170BD00BA704740BA19
:101E900070470A46032100F08AB82DE9FE4F4468D6
:101EA00005468A46208800F05CFFC0F303204FEA15
:101EB0008009C9F100018846284601F09EF80028F3
:101EC00070D1288904286DD368680078082869D102
:101ED00001264FF0704000F042FF216900EA01073F
:101EE0004FF0604000F03BFF874200D10026514692
:101EF00004F1100000F0BCF8002853D1002E51D09E
:101F0000288908284ED3284600F08EF8E8BB222105
:101F1000284601F072F8D0B14946284601F06DF824
:101F200098BB29890022022000F01DFF060039D04D
:101F3000294600F0C4FF40BB41463046746801F0BA
:101F40005CF810BB284601F036F8354605E06FF026
:101F50002101284601F051F8B8B96868E1682269A2
:101F6000E2602161002606704680208900F0F9FEBB
:101F7000C0B240F47F40FFF78AFF20816681494666
:101F8000284601F03AF800B900E00BE00121CDE964
:101F90000061FF230022CDF808A004F10C012846BF
:101FA00000F0DCF92846BDE8FE4F01F004B82DE949
:101FB000FC4791460E46804600222421012000F075
:101FC000D2FE050024D06C68D8F804701C2226705C
:101FD00084F801900026A680E6806868D8F804108E
:101FE0000830FEF7EDF866806989204600F016F8A3
:101FF00060800120CDE90060FF2307F10C02002181
:10200000284600F091F92846BDE8FC4700F0D3BF10
:10201000BDE8FC870A460B21FFF7C9BF10B500F0E9
:1020200093FCC04380B210BD70B50024054626461F
:1020300013E06989686800F087FC2044010C11FAFC
:1020400080F4A87AC00707D0C6F10100C6B2E0B29A
:10205000C4F3072141EA00242D68002DE9D126B1FF
:10206000E0B2C4F3072141EA0024E04380B270BD2E
:102070000068421C12D088B191F82D2092070BD530
:102080004A68824208D0896800EA01030A40934204
:1020900002D10143491C01D0002070470120704744
:1020A0002DE9F74F84B0022205984FF0140B002160
:1020B000868C104600F057FE5FEA000A23D04348A2
:1020C000AAF80A60AAF8086020F00305CAF80450CC
:1020D0000498142241682846FEF772F8E88800F058
:1020E00040FEC0F30C0700F40050029004980089F1
:1020F000143884B2143EF01706EB5070C0F3CF00D2
:10210000CDE9000651E04FF0FF3007B0BDE8F08F99
:102110000198844201DC012000E000205FEA000910
:102120000298C7F30C0646EA000645D0204680B266
:10213000804602465B4605F11401049800F007FF53
:1021400058441FFA80FB3046FFF7A1FEE88008F1F3
:10215000140080B2FFF79BFE688000206881142184
:102160002846FFF75BFF6881B9F1000F05D004F145
:10217000140081B2504600F070FF00221146022088
:1021800000F0F1FD06001CD0514600F086FE0598D7
:102190003146069A43699847304600F00CFFA4EB9D
:1021A000080084B20098384487B2002CB0D1504661
:1021B00000F001FF0020A8E7009846F40056C00098
:1021C000B5E7504600F0F7FE9DE70000C70000208D
:1021D0002DE9F047456806468846288800F0C1FD8D
:1021E0000421B1EB103F12D1288800F0BAFDC0F3F2
:1021F00003204FF6FF7101EA8004688800F0B1FD0A
:1022000001467089A04202D33089884203D2304609
:1022100000F0D1FE51E0304600F01FFFDFF80091E2
:102220000127444605F1100A204600F05BFD58B135
:10223000201D09D0606838B1296981420FD021463C
:102240005046FFF715FF50B91FB10027D9F80040DD
:1022500000E02468444500D12468002CE4D14146C4
:1022600005F10C00FFF704FF0028D0D14FF07049B2
:10227000484600F074FDE9684FF0604A00EA010743
:10228000504600F06CFD8742C1D0002CBFD043F611
:10229000FF70FFF7FCFDE988084205D0304600F0EA
:1022A000C3F8060009D075681E4C41463046C4E9A3
:1022B000018500F029FF18B12DE00020BDE8F0876E
:1022C000288900F04EFDC0B201280CD011284146EB
:1022D00005D005F11000FFF7CBFE48B118E03046FD
:1022E00000F080FF17E041463046FFF7D6FD12E0D0
:1022F000484600F034FD296900EA0107504600F025
:102300002EFD874204D0022130467560FFF7C1FDE3
:10231000304600F050FE00206060A060CDE7000075
:1023200054000020300000202DE9FE438146DDE905
:102330000A541F4616468846104600F049FA50B126
:102340000095CDE901403B4632464146484600F003
:1023500005F8BDE8FE836FF00300FAE72DE9F05FB2
:102360001F46DDE90BA5DDF828B05FEA02088946C3
:10237000064641D01421304600F03FFE18B16FF000
:102380000100BDE8F09F7468208900F0EAFC67F363
:102390001F20FFF77CFD208100F0E3FC20F0FF0010
:1023A00040EA0A00FFF773FD2081D8F800002061A1
:1023B0001FFA8BF040F48A40FFF769FD20803089D6
:1023C000FFF765FD174F60804FF0000AA4F806A0E4
:1023D0003888FFF75CFDA0803888401C3880B9F150
:1023E000000F02D0D9F8000010B9281D00D068688D
:1023F000E060A4F80AA002E0706800F11008A88C60
:1024000048B13189814206D9424629463046BDE865
:10241000F05FFFF745BE4246314628466B69BDE88E
:10242000F05F1847300000202DE9F14F0027009899
:102430004468208800F095FCC0F3032005287DD176
:10244000E08800F08EFCC0044FEA104A608800F07B
:1024500088FC0546208800F084FCC0F3032040423D
:1024600005EB80001FFA80F9009800F01FFD594D20
:102470000646288830440A2809D93146204600F00B
:102480006DF900285AD0288830440A2856D8A84622
:102490006D684FF0000B0DE06869E168884207D174
:1024A000A8692169884203D1A889A188884204D0FB
:1024B0002F462D68002DEFD106E02DB1E08800F009
:1024C00050FCC00424D02EE0022000F0D5FB050013
:1024D0000AD13146204600F041F9B04216DB022015
:1024E00000F0CAFB050011D02021FDF782FE032079
:1024F000E877D8F8041029601422214605F1080075
:10250000C8F80450FDF75CFEC5B10CE05D46FBE782
:10251000E88900F026FCC00405D01422214605F10C
:102520000800FDF74DFEB8F800103144A8F800107F
:10253000E08800F016FC800408D400E045E0A87FA5
:1025400040F00100A8770AEB0900A883284600990B
:1025500000F042F8002836D0A88B14221430A8834B
:10256000686805F10801466830463468FDF728FEC2
:10257000A88BFFF78CFC7080A6F806B0A6F80AB00E
:1025800014213046FFF74AFD70816FF0130AD5F829
:10259000049009E051462046666800F02EFD214671
:1025A000484600F066FC3468002CF3D139462846D2
:1025B00000F08AF8484600F079FCB8F80020101ABC
:1025C000A8F800004846BDE8F88F009800F0F3FC3A
:1025D0000020F8E7280000202DE9F047D1F804900A
:1025E00080460E4600240125B9F8020000F0B9FB30
:1025F0000746B9F8000000F0B4FBC0F303204042E6
:1026000007EB8007B9F8060000F0ABFBC004726866
:10261000030C00201060D81993801FFA80FCA2F8E8
:1026200006C0D8F804101CE048688788BB420DD269
:1026300011603CB1E788BB4236D38088844533D8EB
:10264000266001E0C8F8046069B116E02CD0C188AA
:102650008B4229D31CB1E188B94200D00025016822
:1026600004460029E0D134B12660E0889188884290
:1026700003D0002501E0C8F8046098F81E00C007E8
:102680000ED065B1D8F804004068808830B9116870
:1026900029B14868D1888288914203D00025284614
:1026A000BDE8F0870246F2E7304600F0FFFB014646
:1026B00004480288511A0180304600F07CFC00205A
:1026C000EEE7000028000020074A30B40B465468AB
:1026D0000168844201D1516000E01960014630BCBC
:1026E000022000F091BA0000280000202DE9F041FE
:1026F00044680646884660680025818891B900686C
:102700007060142206F108016068FDF759FD01218F
:102710002046FFF77FFC204600F0C8FB0546204618
:1027200000F049FC746809E0606827460468384690
:1027300000F0BCFB0544384600F03DFC002CF3D112
:1027400041463046FFF7C0FF03490888401B088018
:102750002846BDE8F0810000280000202DE9F04166
:10276000DFF868800F46054600260022134614460F
:10277000D8F804001AE04169D5F80CC0614509D1C8
:102780008169D5F810C0614504D18189B5F804C0CC
:10279000614507D0641C22B1C17F92F81FC061451A
:1027A00000D80246016801B1034608460028E2D17C
:1027B00022B119461046FFF799FF0644BE4201DADE
:1027C000012CD2DC3046BDE8F0810000280000205A
:1027D00070B505460E4804680DE0204600F082FA08
:1027E00040B1A0682968626801400240914201D16D
:1027F000204670BD2468002CEFD1064C206820B123
:1028000000F070FA08B1206870BD002070BD0000B3
:10281000540000205800002070B50446062084F8BB
:102820002600002084F8270084F8280084F8290076
:1028300084F82A0084F82B00022084F82C0004F18C
:1028400027010020FEF712F840F2DC50A08432206D
:1028500084F82D0005220C490C48FDF7CDFD05221A
:102860000B490C48FDF78EFD084D00244FF440063F
:1028700005EB44103146FDF7E3FD641C052CF7DB46
:10288000BDE87040FEF7E4B8605D0020FC3E00202B
:102890009C3F00205C3E00202DE9FE430025684659
:1028A000FDF7ACFEDDE901710098884681B2032294
:1028B000104600F058FA06000AD0044679196289D9
:1028C0006068FDF77DFC608924680544002CF5D123
:1028D0000F4B18688168012901D9016800E0414661
:1028E00000204FF0004202E00A60C968401C1C68EA
:1028F000A4688442F8D818680021816005484269BC
:10290000120602D58022426181603046BDE8FE8316
:102910007C0000200090024070B50A480C4600255B
:102920000068866807E0628970196168FDF748FCF5
:10293000608924680544002CF5D1A8B2FDF7FCFF9E
:10294000002070BD7400002030B4002208E010F8B0
:10295000013B891E10F8014B89B244EA032422444A
:102960000129F4D811B1007802EB0022100C10FA02
:1029700082F0010C02D0010C11FA80F030BC80B260
:10298000FFF785BA70B5FEF789FDFEF7A3FD274D69
:1029900004212846FEF7D8FA00214EF66022491C91
:1029A0009142FCD30021491C9142FCD30021491CD7
:1029B0009142FCD30020401C9042FCD320212846A9
:1029C000FEF7B9FA1A4E012820D0FDF73FFCFEF7BA
:1029D0006FFCFEF761FB42F21074FDF793FC08B147
:1029E000FEF7A8FC3068FEF793FC02212846FEF7AC
:1029F000ABFA0020401CA042FCD302212846FEF77F
:102A0000A1FA0020401CA042FCD3E6E7094908686F
:102A1000094A1040B0F1005F06D14868F060B0602C
:102A2000096881F308888047002070BD00180240C3
:102A30000C000020000001080000FE2F002810D02C
:102A400008494A6890420CD38A68904209D2002211
:102A500000F8042CCA680838904200D2C86000F020
:102A600029BB7047400000200A4810B50A4A20F0F0
:102A700003014FF4805351600B8000244C800C7193
:102A800001F580500124906004710380438014702C
:102A9000D16010BDA706002040000020F0B500283E
:102AA00047D04FF6FC71C01C00EA01034FF4805C74
:102AB0000C2B01D20C2301E063453ED8DFF880E007
:102AC000C3F58054DEF80C50DEF80420A81A81B259
:102AD00031E0501806796EBB0688761A083E9E4291
:102AE00028D3048803F11406641A0127083CB44271
:102AF00010D30B4408339CB2131900261E710688AC
:102B00001E805980048007711988614503D0931C89
:102B1000CC5200E00771A8420AD1DEE902310C79FB
:102B200034B1994204D009881144CEF80C10F6E76C
:102B30000830F0BD515A8C42CBDC0020F0BD0000C3
:102B4000400000202DE9F04F4FF6FC72C91C1140E7
:102B50004FF480590C2901D20C2101E0494510D8CD
:102B6000284E7468A0420ED3B26890420BD2A0F1F6
:102B70000802131B15889BB2EF1A083FBFB2B94277
:102B800003D94FF00000BDE8F08FFCD005EB040C3A
:102B90001C4DB2469CF80480EE686D684FF0000B47
:102BA00005F10205B8F1000F16D001F1140CBC4577
:102BB000E9D8194408318FB2E119B14201D2CAF8FB
:102BC0000C1081F804B014880C804B8017800988A1
:102BD0004945D8D04F53D6E719440831BCF80070A6
:102BE00089B2664502D16618CAF80C600C4484F8B4
:102BF00004B027806380118022884A45C3D0515396
:102C0000C1E7000040000020002905D0034A52F827
:102C100020300B6042F8201070470000B8160020EA
:102C2000F0B50020401C80B20628FBD31048104CA1
:102C300020F0030100200F4E07461B3C06F10C0557
:102C400044F82070002209E054F820300B6044F86A
:102C5000201036F81030521C194492B235F810305A
:102C60009342F1D8401C80B20628E9D3F0BD0000A1
:102C7000D3160020F03400080146062801D30020B6
:102C80007047044A52F821000028F9D0036842F83E
:102C900021307047B81600202DE9F041044606A8FF
:102CA00090E8E00000206060A060E06084F82D0003
:102CB000C4E907500A4D287884F83000401C287079
:102CC0002046276100F013F82046B04710B10020DD
:102CD000BDE8F0816868206020466C60F8E700007D
:102CE0005000002090F82D0000F00100704710B552
:102CF000044600F01EF81146204600F01EF820465B
:102D0000BDE81040194600F010B800000149886085
:102D1000704700005000002090F82D10CA0703D023
:102D200021F0010180F82D10704701B10968C160E0
:102D3000704701B109684160704701B1096881605D
:102D4000704790F82D10CA0708D141F0010180F8B2
:102D50002D10890602D5011DFEF740BF704700BA4D
:102D6000704740BA70472DE9F04717460D460026D8
:102D700030B1012805D0022804D003284BD102E04D
:102D8000142614360E364FF001094FF00008F7B341
:102D9000012F5CD0022F5AD0032F3CD10520FFF722
:102DA0006BFF041E38D0A0191330277320F00300E6
:102DB000C4E90080F61C26F00300C0F5BE60414661
:102DC0002581A84200DD28466081A4F80E902646A1
:102DD0002D1A4FF4BE6A884616E00520FFF74CFF17
:102DE000B0B1077380F80D80C0F80080A9B23060E0
:102DF0000181514500D35146418100F110024260EA
:102E0000A0F80E906D1A0646002DE6DC2BE005E0DA
:102E1000204600F0D0F80020BDE8F08706F113004E
:102E200020F00301E81C20F00300084480B2FFF703
:102E300035FE041EF0D0A019133020F003006060AE
:102E400025816581C4F8008084F80C800BE00420A3
:102E5000FFF712FF041EDFD0C4F8048025816581CE
:102E6000C4F800802773A4F80E9084F80D802046E3
:102E7000D2E710B500280FD000290DD004E0038957
:102E80000C892344038110460268002AF7D1028985
:102E90000B891A440281016010BD10B50C46FFF782
:102EA000E8FF2046BDE8104000F0FEB8002102E037
:102EB000491C0068C9B20028FAD1084670472DE9BC
:102EC000F0474FF000070C4605003E4604D01CB109
:102ED00028892189884203D26FF00900BDE8F08774
:102EE0006FF0080968896189C01B891B884201DB72
:102EF00088B200E080B28046606842468119686806
:102F00003844FDF75DF907EB080087B206EB0800CF
:102F100086B26889B84201D12D6800276089B04225
:102F200001D8246800262CB160892189884201D10A
:102F3000206830B93DB168892989884203D1286861
:102F400008B14846CAE7002CCCD10020C6E72DE9DD
:102F5000F047164689464FF00008002806D0B9F120
:102F6000000F02D00027044620E00020BDE8F087D3
:102F70002BB16089984202D8181A83B215E0608993
:102F8000C01A85B2B54200D9354660682A46C118D4
:102F900009EB0700FDF714F908EB05001FFA80F8AC
:102FA000781987B2701B86B2002324680EB1002CFA
:102FB000DED14046DAE770B5002815D00024C1897B
:102FC000491E0904090CC1810DD1017B0568032943
:102FD0000BD001290CD002290AD0FFF72FFD641C69
:102FE000E4B22800EBD1204670BD0146052001E087
:102FF00001460420FFF708FEF1E710B541B138B1F2
:10300000002907DA4A4293B242899A4223D302E066
:10301000002010BD8BB2027B446832B1032A04D079
:10302000022A0AD0012A08D015E0621A00F1100322
:1030300042609A4208D244600DE000290BDA4289CE
:103040009A4208D3621A426042890A444281028944
:1030500011440181DCE7012010BD70B502898A426C
:1030600021D98A1A0D46044605E0281A85B220891E
:103070001044208124686089A842F6D3207B50B98F
:103080006089A84207D0A088001B284481B220464E
:10309000FFF758FD044665812581206808B1FFF7D8
:1030A0008AFF0020206070BD002802D0C189491C21
:1030B000C181704730B5134C018862681144931C7C
:1030C00088420DD00D795DB9A568A94208D0E568A0
:1030D0008D4200D1E0600D8805800988851ACD52A7
:1030E0004188114481420BD00D79002D08D1E5684B
:1030F000854200D1E16004880C800088891AC152A1
:1031000030BD0000400000202DE9F04747688046B0
:1031100000263889FFF725FEDFF850A000F0FF09F0
:103120000025DAF800401CE0217C494516D1D4F88E
:1031300014C0BCF1000F11D007F10C034246214628
:10314000A069E04750B14FF00008012635B1E068B2
:10315000E860DAF80010E160CAF800402546E4684B
:103160000EB9002CE0D13046BDE8F0875C000020AD
:10317000F0B5154D00242B6803E0984200D10124DE
:10318000DB68002BF9D101B109680160A2B9296897
:103190004FF480520E4647F6FF7307E04F8A97427E
:1031A00003D1521C92B2314600E0C96821B19A4263
:1031B000F4D16FF00A00F0BD428214B92968C160F1
:1031C00028600020F0BD00003C0000200449096890
:1031D000416000218182017C21F00401017470476B
:1031E000EC3400082DE9F34F4568074681B0288884
:1031F000FFF7B7FDC0F303214FF0080B0BEB810085
:10320000398988427ED82888FFF7ABFDC0F30320B8
:10321000800041423846FFF7F0FE002879D17C68F3
:1032200005F110000299FEF723FF06462088FFF7FC
:1032300098FD81466088FFF794FDDFF8E0A0034623
:103240000022DAF800401046A44628E0618A99423C
:1032500023D116B93CB1216829B12168D5F8108075
:10326000414500D0CEB118B9217C490700D4204691
:10327000B4F81480C84510D1211D05D0616819B17A
:10328000D5F80C80414508D12AB1E168D160C4F875
:103290000CC0CAF8004024B10AE02246E468002CC1
:1032A000D4D1040004D1029829694068884230D101
:1032B0006FF007013846FFF7A0FE18BB5CB1A669A6
:1032C00006B3CDF8009005F10C033A462146E069BB
:1032D000B047BDE8FE8FAEB94FF07040FFF73FFD3D
:1032E000296900EA01044FF06040FFF738FD84428D
:1032F0000FD02888FFF735FDC0F303210BEB8101C8
:10330000384600E005E0FFF778FE03213846FEF777
:10331000C0FD3846BDE8FE4FFFF74DBE3C00002023
:1033200010B50120FFF7A8FC040004D02021FCF711
:1033300060FFFF20E072204610BDC0E90612704712
:1033400009490A68824209D1D2680A6008E0D16856
:1033500019B1814201D1C168D1600A46002AF6D173
:1033600001460120FFF750BC3C000020F8B507469D
:103370001D460E4614461046FFF72AFA38B1009053
:103380002B4622463146384600F004F8F8BD6FF06F
:103390000300F8BD2DE9FE4F9246428ADDF83090D9
:1033A0001F468846044622B90146FFF7E1FE002881
:1033B00011D108214046FFF720FE70B100220821FC
:1033C0000120FFF7D0FC050003D04146FFF765FD63
:1033D00004E04FF0FF30BDE8FE8F4546608A6E681E
:1033E000FEF755FD30803846FEF751FD7080002015
:1033F000F0806CB1206858B1D9F8041088420AD026
:10340000454502D02846FFF7D6FD6FF00800E2E7F9
:1034100009F1040700E027462889FEF738FDB0804F
:10342000A17A11228DE80602E37A524639462846EF
:10343000FEF794FF0446454502D02846FFF7BBFD42
:103440002046C8E72DE9F047984616460C00054689
:1034500013D0206888B129462046FEF709FE60B9DE
:103460004FF07040FFF77BFC216800EA01074FF046
:103470006040FFF774FC874203D16FF00900BDE89C
:10348000F08741462046FEF753FC0028F7DB164A3A
:1034900000EB8004022302EB840106208B730D6194
:1034A000401E10F0FF0001EB0007335C3B72F7D1C8
:1034B000C87305F1270990460FE00A6848F82420F0
:1034C00003204F68FFF7A0FB33464A46394628469B
:1034D000FEF796FB3846FFF76EFD58F824100029DA
:1034E000EBD10020CBE70000943D0020000000005D
:1034F0001C00200020000800100000060400050049
:1035000005001E0002000600FFFFFFFFFFFF000096
:1035100000000000000000000000000000000000AB
:10352000000000000000000000000000000000009B
:10353000000000000000000000000000000000008B
:1035400000000000000080018001800180018001F6
:103550008001800180018001800180018001800163
:103560000000000080018001000000000000000059
:103570000000000000000000CC00CC00CC00CC001B
:10358000CC00CC00000000000000000000000000A3
:10359000000000000000000000000000000000002B
:1035A000000000000000000000000000000000001B
:1035B000600C600C600C30063006FE1FFE1F3006EB
:1035C00038071803FE1FFE1F180318038C018C0117
:1035D0008C01000000008000E003F80F9C0E8C1CA2
:1035E0008C188C009800F801E007800E801C8C1865
:1035F0008C189C18B80CF00FE003800080000000CD
:10360000000000000000000000000E181B0C110C50
:1036100011061106110311039B018E01C038C06C05
:1036200060446044304430441844186C0C38000046
:10363000000000000000E001F0033807180618063B
:103640003003F001F000F8009C310E33061E061C1A
:10365000061C063FFC73F021000000000000000083
:1036600000000000000000000C000C000C000C002A
:103670000C000C0000000000000000000000000032
:10368000000000000000000000000000000000003A
:10369000000000000000000200038001C000C00024
:1036A000600060003000300030003000300030003A
:1036B0003000300060006000C000C00080010003E6
:1036C00000020000000020006000C00080018001B6
:1036D00000030003000600060006000600060006C0
:1036E000000600060003000380018001C0006000A6
:1036F00020000000000000000000000000000000AA
:10370000C000C000D806F807E00130033807000009
:1037100000000000000000000000000000000000A9
:103720000000000000000000000000000000000099
:1037300080018001800180018001FC3FFC3F80010D
:103740008001800180018001000000000000000075
:103750000000000000000000000000000000000069
:103760000000000000000000000000000000000059
:1037700000000000000080018001000100018000C5
:103780000000000000000000000000000000000039
:10379000000000000000000000000000E007E0075B
:1037A0000000000000000000000000000000000019
:1037B0000000000000000000000000000000000009
:1037C00000000000000000000000000000000000F9
:1037D000000000000000C000C00000000000000069
:1037E000000000000000000C000C000600060006AF
:1037F0000003000300038003800180018001C000FA
:10380000C000C00060006000000000000000000078
:10381000000000000000E003F007380E180C0C1840
:103820000C180C180C180C180C180C180C180C1878
:10383000180C380EF007E003000000000000000044
:1038400000000000000000018001C001F0019801AB
:103850008801800180018001800180018001800158
:103860008001800180018001000000000000000054
:10387000000000000000E003F80F180C0C180C18F2
:1038800000180018000C000600038001C000600052
:1038900030001800FC1FFC1F0000000000000000AA
:1038A000000000000000E001F807180E0C0C0C0CE2
:1038B000000C0006C003C007000C001800180C180C
:1038C0000C18180CF807E0030000000000000000CE
:1038D000000000000000000C000E000F000F800D23
:1038E000C00C600C600C300C180C0C0CFC3FFC3F46
:1038F000000C000C000C000C000000000000000098
:10390000000000000000F80FF80F180018000C006D
:10391000EC03FC071C0E001C0018001800180C1803
:103920001C0C180EF807E003000000000000000067
:10393000000000000000C007F00F381C1818180025
:103940000C00CC03EC0F3C0E1C1C0C180C180C18B3
:10395000181C380EF007E003000000000000000013
:10396000000000000000FC1FFC1F000C0006000609
:10397000000380038001C001C000E000600060001F
:103980007000300030003000000000000000000037
:10399000000000000000E003F007380E180C180CBF
:1039A000180C3806F007F007180C0C180C180C1837
:1039B0000C18380CF80FE0030000000000000000B5
:1039C000000000000000E003F007380E1C0C0C188B
:1039D0000C180C181C1C381EF81BE0190018000CE1
:1039E000000C1C0EF807F0010000000000000000B1
:1039F00000000000000000000000000000000000C7
:103A000080018001000000000000000000000000B4
:103A100000000000800180010000000000000000A4
:103A20000000000000000000000000000000000096
:103A30008001800100000000000000000000000084
:103A400000000000800180010001000180000000F2
:103A50000000000000000000000000000000000066
:103A6000000000000010001C800FE003F8001800A8
:103A7000F800E003800F001C0010000000000000B0
:103A80000000000000000000000000000000000036
:103A900000000000F81F000000000000F81F0000F8
:103AA0000000000000000000000000000000000016
:103AB0000000000000000000000000000000000006
:103AC0000000000008003800F001C007001F0018C7
:103AD000001FC007F00138000800000000000000CF
:103AE000000000000000E003F80F180C0C180C1880
:103AF0000018000C000600038001C000C000C000D8
:103B000000000000C000C000000000000000000035
:103B10000000000000000000E00718180420C2297F
:103B2000224A114409440944094409221113E20CB0
:103B3000024004201818E007000000000000000008
:103B400000000000000080038003C006C006C0061D
:103B5000600C600C301830183018F83FF83F1C70BB
:103B60000C600C6006C006C00000000000000000F1
:103B7000000000000000FC03FC0F0C0C0C180C18DB
:103B80000C180C0CFC07FC0F0C180C300C300C3013
:103B90000C300C18FC1FFC070000000000000000A7
:103BA000000000000000C007F01F38381C300C7007
:103BB0000660060006000600060006000600066015
:103BC0000C701C30F01FE007000000000000000037
:103BD000000000000000FE03FE0F060E0618061887
:103BE000063006300630063006300630063006183D
:103BF0000618060EFE0FFE03000000000000000085
:103C0000000000000000FC3FFC3F0C000C000C001A
:103C10000C000C00FC1FFC1F0C000C000C000C0026
:103C20000C000C00FC3FFC3F000000000000000006
:103C3000000000000000F83FF83F180018001800CE
:103C400018001800F81FF81F1800180018001800B6
:103C50001800180018001800000000000000000004
:103C6000000000000000E00FF83F3C780E6006E026
:103C700007C00300030003FE03FE03C007C006C025
:103C80000EC03CF0F83FE00F000000000000000014
:103C90000000000000000C300C300C300C300C30F8
:103CA0000C300C30FC3FFC3F0C300C300C300C3036
:103CB0000C300C300C300C30000000000000000014
:103CC000000000000000800180018001800180016F
:103CD00080018001800180018001800180018001DC
:103CE00080018001800180010000000000000000D0
:103CF00000000000000000060006000600060006A6
:103D0000000600060006000600060006000618066B
:103D100018063807F003E001000000000000000072
:103D200000000000000006300618060C0606060318
:103D30008601C60066007600DE008E0106030606D8
:103D4000060C0618063006600000000000000000A7
:103D500000000000000018001800180018001800EB
:103D60001800180018001800180018001800180093
:103D700018001800F81FF81F0000000000000000E5
:103D80000000000000000EE01EF01EF01EF036D80D
:103D900036D836D836D866CC66CC66CCC6C6C6C64B
:103DA000C6C6C6C686C386C3000000000000000069
:103DB0000000000000000C301C303C303C306C3007
:103DC0006C30CC30CC308C310C330C330C360C36A0
:103DD0000C3C0C3C0C380C300000000000000000D3
:103DE000000000000000E007F81F1C380E7006609D
:103DF00003C003C003C003C003C003C003C0066008
:103E00000E701C38F81FE0070000000000000000E2
:103E1000000000000000FC0FFC1F0C380C300C30C0
:103E20000C300C300C18FC1FFC070C000C000C00B4
:103E30000C000C000C000C00000000000000000052
:103E4000000000000000E007F81F1C380E7006603C
:103E500003E003C003C003C003C003C007E0066360
:103E60000E3F1C3CF83FE0F700C0000000000000DF
:103E7000000000000000FE0FFE1F0638063006306E
:103E800006300638FE1FFE0706030606060C061857
:103E90000618063006300660000000000000000032
:103EA000000000000000E003F80F1C0C0C180C18B8
:103EB0000C001C00F803E00F001E0038063006302E
:103EC0000E301C1CF80FE00700000000000000008E
:103ED000000000000000FE7FFE7F80018001800165
:103EE00080018001800180018001800180018001CA
:103EF00080018001800180010000000000000000BE
:103F00000000000000000C300C300C300C300C3085
:103F10000C300C300C300C300C300C300C300C30C1
:103F20000C301818F81FE007000000000000000027
:103F300000000000000003600630063006300C1858
:103F40000C180C18180C180C380E300630067007B8
:103F500060036003C001C001000000000000000019
:103F60000000000000000360C361C361C3616633E9
:103F7000663366336633663366336C1B6C1B6C1BAF
:103F80002C1A3C1E380E380E000000000000000005
:103F90000000000000000FE00C7018303018700CAA
:103FA000600EC00780038003C003E006700C301C65
:103FB00018180C300E6007E0000000000000000040
:103FC00000000000000003C006600C301C383818E8
:103FD000300C6006E007C003800180018001800191
:103FE00080018001800180010000000000000000CD
:103FF000000000000000FC7FFC7F00600030001823
:10400000000C000600038001C000600030001800B2
:104010000C000600FE7FFE7F000000000000000094
:10402000000000000000E003E003600060006000AA
:104030006000600060006000600060006000600080
:104040006000600060006000600060006000E003ED
:10405000E0030000000030003000600060006000FD
:10406000C000C000C000C0018001800180010003C9
:10407000000300030006000600000000000000002E
:10408000000000000000E003E00300030003000361
:104090000003000300030003000300030003000308
:1040A0000003000300030003000300030003E00318
:1040B000E003000000000000C001C00160036003D5
:1040C000600330063006180C180C000000000000D9
:1040D00000000000000000000000000000000000E0
:1040E00000000000000000000000000000000000D0
:1040F00000000000000000000000000000000000C0
:10410000000000000000FFFFFFFF000000000000B3
:104110000000000000000C000C000C000C000C0063
:104120000C00000000000000000000000000000083
:10413000000000000000000000000000000000007F
:10414000000000000000000000000000000000006F
:10415000F003F8071C0C0C0C000FF00FF80C0C0C03
:104160000C0C1C0FF80FF0180000000000000000FD
:1041700000000000000018001800180018001800C7
:10418000D803F80F380C1818181818181818181819
:104190001818380CF80FD8030000000000000000C9
:1041A000000000000000000000000000000000000F
:1041B000C003F007300E180C180018001800180083
:1041C000180C300EF007C0030000000000000000D3
:1041D0000000000000000018001800180018001867
:1041E000C01BF01F301C18181818181818181818A9
:1041F0001818301CF01FC01B000000000000000059
:1042000000000000000000000000000000000000AE
:10421000C003F00F300C1818F81FF81F1800180012
:104220003818301CF00FC00700000000000000002C
:10423000000000000000800FC00FC000C000C000E0
:10424000F007F007C000C000C000C000C000C00000
:10425000C000C000C000C00000000000000000005E
:10426000000000000000000000000000000000004E
:10427000E00DF80F180E0C0C0C0C0C0C0C0C0C0CAC
:104280000C0C180EF80FE00D000C0C0C1C06F807B7
:10429000F0010000000018001800180018001800B5
:1042A000D807F80F381C18181818181818181818E4
:1042B000181818181818181800000000000000003E
:1042C000000000000000C000C0000000000000006E
:1042D000C000C000C000C000C000C000C000C000DE
:1042E000C000C000C000C0000000000000000000CE
:1042F000000000000000C000C0000000000000003E
:10430000C000C000C000C000C000C000C000C000AD
:10431000C000C000C000C000C000C000C000F80065
:104320007800000000000C000C000C000C000C00D9
:104330000C0C0C060C038C01CC006C00FC009C01E6
:104340008C030C030C060C0C0000000000000000A5
:10435000000000000000C000C000C000C000C0009D
:10436000C000C000C000C000C000C000C000C0004D
:10437000C000C000C000C00000000000000000003D
:10438000000000000000000000000000000000002D
:104390007C3CFF7EC7E383C183C183C183C183C1EA
:1043A00083C183C183C183C10000000000000000FD
:1043B00000000000000000000000000000000000FD
:1043C0009807F80F381C1818181818181818181803
:1043D000181818181818181800000000000000001D
:1043E00000000000000000000000000000000000CD
:1043F000C003F00F300C18181818181818181818CF
:104400001818300CF00FC00300000000000000007E
:10441000000000000000000000000000000000009C
:10442000D803F80F380C1818181818181818181876
:104430001818380CF80FD8031800180018001800C6
:104440001800000000000000000000000000000054
:10445000C01BF01F301C1818181818181818181836
:104460001818301CF01FC01B001800180018001886
:104470000018000000000000000000000000000024
:10448000B007F00370003000300030003000300022
:10449000300030003000300000000000000000005C
:1044A000000000000000000000000000000000000C
:1044B000E003F003380E180C3800F003C007000CBE
:1044C000180C380EF007E0030000000000000000A8
:1044D00000000000000000008000C000C000C0001C
:1044E000F007F007C000C000C000C000C000C0005E
:1044F000C000C000C00780070000000000000000EE
:1045000000000000000000000000000000000000AB
:10451000181818181818181818181818181818181B
:104520001818381CF01FE0190000000000000000FF
:10453000000000000000000000000000000000007B
:104540000C18180C180C180C3006300630066003D6
:1045500060036003C001C001000000000000000013
:10456000000000000000000000000000000000004B
:10457000C141C141C36163636363636336363636E9
:1045800036361C1C1C1C1C1C000000000000000017
:10459000000000000000000000000000000000001B
:1045A0001C38381C300C6006600360036003600335
:1045B0006006300C381C1C380000000000000000B1
:1045C00000000000000000000000000000000000EB
:1045D0001830301830187018600C600CE00CC006F1
:1045E000C00680038003800380018001C001F000C9
:1045F000700000000000000000000000000000004B
:10460000FC1FFC1F000C000600038001C0006000BE
:1046100030001800FC1FFC1F00000000000000001C
:1046200000000000000000038001C000C000C000C6
:10463000C000C000C00060006000300060004000AA
:10464000C000C000C000C000C000C0008001000366
:1046500000000000000080018001800180018001D5
:104660008001800180018001800180018001800142
:104670008001800180018001800180018001800132
:104680008001000000006000C000C00180018001C6
:104690008001800180010003000300060003000187
:1046A000800180018001800180018001C0006000E4
:1046B00000000000000000000000000000000000FA
:1046C00000000000F010F81F080F000000000000BC
:1046D00000000000000000000000000000000000DA
:1046E00000000000044700080000002090000000C7
:1046F000861600089447000890000020A07E000065
:1047000096160008000000000000000000000000F5
:104710000000000000000000000000000000000099
:104720000000000000000000000000000000000089
:104730000000000000000000000000000000000079
:104740000000000000000000000000000000000069
:104750000000000000000000000000000000000059
:104760000000000000000000000102030401020339
:104770000406070809000000000000000000000017
:10478000000000000000FFFF0000000014350008DA
:0447900010001800FD
:040000050800018965
:00000001FF
